{"abi":[{"inputs":[{"internalType":"uint256","name":"minContribution","type":"uint256"},{"internalType":"address","name":"creator","type":"address"}],"stateMutability":"nonpayable","type":"constructor"},{"inputs":[{"internalType":"uint256","name":"","type":"uint256"}],"name":"campaignRequests","outputs":[{"internalType":"string","name":"description","type":"string"},{"internalType":"uint256","name":"payoutValue","type":"uint256"},{"internalType":"address payable","name":"recipient","type":"address"},{"internalType":"bool","name":"complete","type":"bool"},{"internalType":"uint256","name":"approvalCount","type":"uint256"}],"stateMutability":"view","type":"function"},{"inputs":[],"name":"contractManager","outputs":[{"internalType":"address","name":"","type":"address"}],"stateMutability":"view","type":"function"},{"inputs":[],"name":"contribute","outputs":[],"stateMutability":"payable","type":"function"},{"inputs":[{"internalType":"string","name":"description","type":"string"},{"internalType":"uint256","name":"payoutValue","type":"uint256"},{"internalType":"address","name":"recipient","type":"address"}],"name":"createManagerRequest","outputs":[{"internalType":"uint256","name":"requestID","type":"uint256"}],"stateMutability":"nonpayable","type":"function"},{"inputs":[{"internalType":"uint256","name":"campaignID","type":"uint256"}],"name":"finalizeManagerRequest","outputs":[],"stateMutability":"nonpayable","type":"function"},{"inputs":[{"internalType":"address","name":"","type":"address"}],"name":"funders","outputs":[{"internalType":"uint256","name":"","type":"uint256"}],"stateMutability":"view","type":"function"},{"inputs":[],"name":"fundersCount","outputs":[{"internalType":"uint256","name":"","type":"uint256"}],"stateMutability":"view","type":"function"},{"inputs":[],"name":"getRequestsCount","outputs":[{"internalType":"uint256","name":"","type":"uint256"}],"stateMutability":"view","type":"function"},{"inputs":[],"name":"getSummary","outputs":[{"internalType":"uint256","name":"","type":"uint256"},{"internalType":"uint256","name":"","type":"uint256"},{"internalType":"uint256","name":"","type":"uint256"},{"internalType":"uint256","name":"","type":"uint256"},{"internalType":"address","name":"","type":"address"}],"stateMutability":"view","type":"function"},{"inputs":[],"name":"minimumContribution","outputs":[{"internalType":"uint256","name":"","type":"uint256"}],"stateMutability":"view","type":"function"},{"inputs":[],"name":"numRequests","outputs":[{"internalType":"uint256","name":"","type":"uint256"}],"stateMutability":"view","type":"function"},{"inputs":[{"internalType":"uint256","name":"campaignID","type":"uint256"}],"name":"voteForRequest","outputs":[],"stateMutability":"nonpayable","type":"function"}],"devdoc":{"kind":"dev","methods":{},"version":1},"evm":{"assembly":"    /* \"KickstarterCampaign.sol\":74:2818   */\n  mstore(0x40, 0x80)\n    /* \"KickstarterCampaign.sol\":414:556   */\n  callvalue\n  dup1\n  iszero\n  tag_1\n  jumpi\n  0x00\n  dup1\n  revert\ntag_1:\n  pop\n  mload(0x40)\n  sub(codesize, bytecodeSize)\n  dup1\n  bytecodeSize\n  dup4\n  codecopy\n  dup2\n  dup2\n  add\n  0x40\n  mstore\n  dup2\n  add\n  swap1\n  tag_2\n  swap2\n  swap1\n  tag_3\n  jump\t// in\ntag_2:\n    /* \"KickstarterCampaign.sol\":493:500   */\n  dup1\n    /* \"KickstarterCampaign.sol\":475:490   */\n  0x00\n  dup1\n    /* \"KickstarterCampaign.sol\":475:500   */\n  0x0100\n  exp\n  dup2\n  sload\n  dup2\n  0xffffffffffffffffffffffffffffffffffffffff\n  mul\n  not\n  and\n  swap1\n  dup4\n  0xffffffffffffffffffffffffffffffffffffffff\n  and\n  mul\n  or\n  swap1\n  sstore\n  pop\n    /* \"KickstarterCampaign.sol\":533:548   */\n  dup2\n    /* \"KickstarterCampaign.sol\":511:530   */\n  0x01\n    /* \"KickstarterCampaign.sol\":511:548   */\n  dup2\n  swap1\n  sstore\n  pop\n    /* \"KickstarterCampaign.sol\":414:556   */\n  pop\n  pop\n    /* \"KickstarterCampaign.sol\":74:2818   */\n  jump(tag_6)\n    /* \"#utility.yul\":88:205   */\ntag_8:\n    /* \"#utility.yul\":197:198   */\n  0x00\n    /* \"#utility.yul\":194:195   */\n  dup1\n    /* \"#utility.yul\":187:199   */\n  revert\n    /* \"#utility.yul\":334:411   */\ntag_10:\n    /* \"#utility.yul\":371:378   */\n  0x00\n    /* \"#utility.yul\":400:405   */\n  dup2\n    /* \"#utility.yul\":389:405   */\n  swap1\n  pop\n    /* \"#utility.yul\":334:411   */\n  swap2\n  swap1\n  pop\n  jump\t// out\n    /* \"#utility.yul\":417:539   */\ntag_11:\n    /* \"#utility.yul\":490:514   */\n  tag_23\n    /* \"#utility.yul\":508:513   */\n  dup2\n    /* \"#utility.yul\":490:514   */\n  tag_10\n  jump\t// in\ntag_23:\n    /* \"#utility.yul\":483:488   */\n  dup2\n    /* \"#utility.yul\":480:515   */\n  eq\n    /* \"#utility.yul\":470:533   */\n  tag_24\n  jumpi\n    /* \"#utility.yul\":529:530   */\n  0x00\n    /* \"#utility.yul\":526:527   */\n  dup1\n    /* \"#utility.yul\":519:531   */\n  revert\n    /* \"#utility.yul\":470:533   */\ntag_24:\n    /* \"#utility.yul\":417:539   */\n  pop\n  jump\t// out\n    /* \"#utility.yul\":545:688   */\ntag_12:\n    /* \"#utility.yul\":602:607   */\n  0x00\n    /* \"#utility.yul\":633:639   */\n  dup2\n    /* \"#utility.yul\":627:640   */\n  mload\n    /* \"#utility.yul\":618:640   */\n  swap1\n  pop\n    /* \"#utility.yul\":649:682   */\n  tag_26\n    /* \"#utility.yul\":676:681   */\n  dup2\n    /* \"#utility.yul\":649:682   */\n  tag_11\n  jump\t// in\ntag_26:\n    /* \"#utility.yul\":545:688   */\n  swap3\n  swap2\n  pop\n  pop\n  jump\t// out\n    /* \"#utility.yul\":694:820   */\ntag_13:\n    /* \"#utility.yul\":731:738   */\n  0x00\n    /* \"#utility.yul\":771:813   */\n  0xffffffffffffffffffffffffffffffffffffffff\n    /* \"#utility.yul\":764:769   */\n  dup3\n    /* \"#utility.yul\":760:814   */\n  and\n    /* \"#utility.yul\":749:814   */\n  swap1\n  pop\n    /* \"#utility.yul\":694:820   */\n  swap2\n  swap1\n  pop\n  jump\t// out\n    /* \"#utility.yul\":826:922   */\ntag_14:\n    /* \"#utility.yul\":863:870   */\n  0x00\n    /* \"#utility.yul\":892:916   */\n  tag_29\n    /* \"#utility.yul\":910:915   */\n  dup3\n    /* \"#utility.yul\":892:916   */\n  tag_13\n  jump\t// in\ntag_29:\n    /* \"#utility.yul\":881:916   */\n  swap1\n  pop\n    /* \"#utility.yul\":826:922   */\n  swap2\n  swap1\n  pop\n  jump\t// out\n    /* \"#utility.yul\":928:1050   */\ntag_15:\n    /* \"#utility.yul\":1001:1025   */\n  tag_31\n    /* \"#utility.yul\":1019:1024   */\n  dup2\n    /* \"#utility.yul\":1001:1025   */\n  tag_14\n  jump\t// in\ntag_31:\n    /* \"#utility.yul\":994:999   */\n  dup2\n    /* \"#utility.yul\":991:1026   */\n  eq\n    /* \"#utility.yul\":981:1044   */\n  tag_32\n  jumpi\n    /* \"#utility.yul\":1040:1041   */\n  0x00\n    /* \"#utility.yul\":1037:1038   */\n  dup1\n    /* \"#utility.yul\":1030:1042   */\n  revert\n    /* \"#utility.yul\":981:1044   */\ntag_32:\n    /* \"#utility.yul\":928:1050   */\n  pop\n  jump\t// out\n    /* \"#utility.yul\":1056:1199   */\ntag_16:\n    /* \"#utility.yul\":1113:1118   */\n  0x00\n    /* \"#utility.yul\":1144:1150   */\n  dup2\n    /* \"#utility.yul\":1138:1151   */\n  mload\n    /* \"#utility.yul\":1129:1151   */\n  swap1\n  pop\n    /* \"#utility.yul\":1160:1193   */\n  tag_34\n    /* \"#utility.yul\":1187:1192   */\n  dup2\n    /* \"#utility.yul\":1160:1193   */\n  tag_15\n  jump\t// in\ntag_34:\n    /* \"#utility.yul\":1056:1199   */\n  swap3\n  swap2\n  pop\n  pop\n  jump\t// out\n    /* \"#utility.yul\":1205:1712   */\ntag_3:\n    /* \"#utility.yul\":1284:1290   */\n  0x00\n    /* \"#utility.yul\":1292:1298   */\n  dup1\n    /* \"#utility.yul\":1341:1343   */\n  0x40\n    /* \"#utility.yul\":1329:1338   */\n  dup4\n    /* \"#utility.yul\":1320:1327   */\n  dup6\n    /* \"#utility.yul\":1316:1339   */\n  sub\n    /* \"#utility.yul\":1312:1344   */\n  slt\n    /* \"#utility.yul\":1309:1428   */\n  iszero\n  tag_36\n  jumpi\n    /* \"#utility.yul\":1347:1426   */\n  tag_37\n  tag_8\n  jump\t// in\ntag_37:\n    /* \"#utility.yul\":1309:1428   */\ntag_36:\n    /* \"#utility.yul\":1467:1468   */\n  0x00\n    /* \"#utility.yul\":1492:1556   */\n  tag_38\n    /* \"#utility.yul\":1548:1555   */\n  dup6\n    /* \"#utility.yul\":1539:1545   */\n  dup3\n    /* \"#utility.yul\":1528:1537   */\n  dup7\n    /* \"#utility.yul\":1524:1546   */\n  add\n    /* \"#utility.yul\":1492:1556   */\n  tag_12\n  jump\t// in\ntag_38:\n    /* \"#utility.yul\":1482:1556   */\n  swap3\n  pop\n    /* \"#utility.yul\":1438:1566   */\n  pop\n    /* \"#utility.yul\":1605:1607   */\n  0x20\n    /* \"#utility.yul\":1631:1695   */\n  tag_39\n    /* \"#utility.yul\":1687:1694   */\n  dup6\n    /* \"#utility.yul\":1678:1684   */\n  dup3\n    /* \"#utility.yul\":1667:1676   */\n  dup7\n    /* \"#utility.yul\":1663:1685   */\n  add\n    /* \"#utility.yul\":1631:1695   */\n  tag_16\n  jump\t// in\ntag_39:\n    /* \"#utility.yul\":1621:1695   */\n  swap2\n  pop\n    /* \"#utility.yul\":1576:1705   */\n  pop\n    /* \"#utility.yul\":1205:1712   */\n  swap3\n  pop\n  swap3\n  swap1\n  pop\n  jump\t// out\n    /* \"KickstarterCampaign.sol\":74:2818   */\ntag_6:\n  dataSize(sub_0)\n  dup1\n  dataOffset(sub_0)\n  0x00\n  codecopy\n  0x00\n  return\nstop\n\nsub_0: assembly {\n        /* \"KickstarterCampaign.sol\":74:2818   */\n      mstore(0x40, 0x80)\n      jumpi(tag_1, lt(calldatasize, 0x04))\n      shr(0xe0, calldataload(0x00))\n      dup1\n      0x700127ef\n      gt\n      tag_14\n      jumpi\n      dup1\n      0x700127ef\n      eq\n      tag_8\n      jumpi\n      dup1\n      0x937e09b1\n      eq\n      tag_9\n      jumpi\n      dup1\n      0x9fb42b1f\n      eq\n      tag_10\n      jumpi\n      dup1\n      0xb39e12cf\n      eq\n      tag_11\n      jumpi\n      dup1\n      0xcf97e294\n      eq\n      tag_12\n      jumpi\n      dup1\n      0xd7bb99ba\n      eq\n      tag_13\n      jumpi\n      jump(tag_1)\n    tag_14:\n      dup1\n      0x031b3677\n      eq\n      tag_2\n      jumpi\n      dup1\n      0x13a2e117\n      eq\n      tag_3\n      jumpi\n      dup1\n      0x30559591\n      eq\n      tag_4\n      jumpi\n      dup1\n      0x3410452a\n      eq\n      tag_5\n      jumpi\n      dup1\n      0x4051ddac\n      eq\n      tag_6\n      jumpi\n      dup1\n      0x6c60a942\n      eq\n      tag_7\n      jumpi\n    tag_1:\n      0x00\n      dup1\n      revert\n        /* \"KickstarterCampaign.sol\":186:225   */\n    tag_2:\n      callvalue\n      dup1\n      iszero\n      tag_15\n      jumpi\n      0x00\n      dup1\n      revert\n    tag_15:\n      pop\n      tag_16\n      0x04\n      dup1\n      calldatasize\n      sub\n      dup2\n      add\n      swap1\n      tag_17\n      swap2\n      swap1\n      tag_18\n      jump\t// in\n    tag_17:\n      tag_19\n      jump\t// in\n    tag_16:\n      mload(0x40)\n      tag_20\n      swap2\n      swap1\n      tag_21\n      jump\t// in\n    tag_20:\n      mload(0x40)\n      dup1\n      swap2\n      sub\n      swap1\n      return\n        /* \"KickstarterCampaign.sol\":232:256   */\n    tag_3:\n      callvalue\n      dup1\n      iszero\n      tag_22\n      jumpi\n      0x00\n      dup1\n      revert\n    tag_22:\n      pop\n      tag_23\n      tag_24\n      jump\t// in\n    tag_23:\n      mload(0x40)\n      tag_25\n      swap2\n      swap1\n      tag_21\n      jump\t// in\n    tag_25:\n      mload(0x40)\n      dup1\n      swap2\n      sub\n      swap1\n      return\n        /* \"KickstarterCampaign.sol\":1254:1639   */\n    tag_4:\n      callvalue\n      dup1\n      iszero\n      tag_26\n      jumpi\n      0x00\n      dup1\n      revert\n    tag_26:\n      pop\n      tag_27\n      0x04\n      dup1\n      calldatasize\n      sub\n      dup2\n      add\n      swap1\n      tag_28\n      swap2\n      swap1\n      tag_29\n      jump\t// in\n    tag_28:\n      tag_30\n      jump\t// in\n    tag_27:\n      stop\n        /* \"KickstarterCampaign.sol\":2388:2480   */\n    tag_5:\n      callvalue\n      dup1\n      iszero\n      tag_31\n      jumpi\n      0x00\n      dup1\n      revert\n    tag_31:\n      pop\n      tag_32\n      tag_33\n      jump\t// in\n    tag_32:\n      mload(0x40)\n      tag_34\n      swap2\n      swap1\n      tag_21\n      jump\t// in\n    tag_34:\n      mload(0x40)\n      dup1\n      swap2\n      sub\n      swap1\n      return\n        /* \"KickstarterCampaign.sol\":2114:2380   */\n    tag_6:\n      callvalue\n      dup1\n      iszero\n      tag_35\n      jumpi\n      0x00\n      dup1\n      revert\n    tag_35:\n      pop\n      tag_36\n      tag_37\n      jump\t// in\n    tag_36:\n      mload(0x40)\n      tag_38\n      swap6\n      swap5\n      swap4\n      swap3\n      swap2\n      swap1\n      tag_39\n      jump\t// in\n    tag_38:\n      mload(0x40)\n      dup1\n      swap2\n      sub\n      swap1\n      return\n        /* \"KickstarterCampaign.sol\":347:403   */\n    tag_7:\n      callvalue\n      dup1\n      iszero\n      tag_40\n      jumpi\n      0x00\n      dup1\n      revert\n    tag_40:\n      pop\n      tag_41\n      0x04\n      dup1\n      calldatasize\n      sub\n      dup2\n      add\n      swap1\n      tag_42\n      swap2\n      swap1\n      tag_29\n      jump\t// in\n    tag_42:\n      tag_43\n      jump\t// in\n    tag_41:\n      mload(0x40)\n      tag_44\n      swap6\n      swap5\n      swap4\n      swap3\n      swap2\n      swap1\n      tag_45\n      jump\t// in\n    tag_44:\n      mload(0x40)\n      dup1\n      swap2\n      sub\n      swap1\n      return\n        /* \"KickstarterCampaign.sol\":1647:2106   */\n    tag_8:\n      callvalue\n      dup1\n      iszero\n      tag_46\n      jumpi\n      0x00\n      dup1\n      revert\n    tag_46:\n      pop\n      tag_47\n      0x04\n      dup1\n      calldatasize\n      sub\n      dup2\n      add\n      swap1\n      tag_48\n      swap2\n      swap1\n      tag_29\n      jump\t// in\n    tag_48:\n      tag_49\n      jump\t// in\n    tag_47:\n      stop\n        /* \"KickstarterCampaign.sol\":147:179   */\n    tag_9:\n      callvalue\n      dup1\n      iszero\n      tag_50\n      jumpi\n      0x00\n      dup1\n      revert\n    tag_50:\n      pop\n      tag_51\n      tag_52\n      jump\t// in\n    tag_51:\n      mload(0x40)\n      tag_53\n      swap2\n      swap1\n      tag_21\n      jump\t// in\n    tag_53:\n      mload(0x40)\n      dup1\n      swap2\n      sub\n      swap1\n      return\n        /* \"KickstarterCampaign.sol\":317:340   */\n    tag_10:\n      callvalue\n      dup1\n      iszero\n      tag_54\n      jumpi\n      0x00\n      dup1\n      revert\n    tag_54:\n      pop\n      tag_55\n      tag_56\n      jump\t// in\n    tag_55:\n      mload(0x40)\n      tag_57\n      swap2\n      swap1\n      tag_21\n      jump\t// in\n    tag_57:\n      mload(0x40)\n      dup1\n      swap2\n      sub\n      swap1\n      return\n        /* \"KickstarterCampaign.sol\":110:140   */\n    tag_11:\n      callvalue\n      dup1\n      iszero\n      tag_58\n      jumpi\n      0x00\n      dup1\n      revert\n    tag_58:\n      pop\n      tag_59\n      tag_60\n      jump\t// in\n    tag_59:\n      mload(0x40)\n      tag_61\n      swap2\n      swap1\n      tag_62\n      jump\t// in\n    tag_61:\n      mload(0x40)\n      dup1\n      swap2\n      sub\n      swap1\n      return\n        /* \"KickstarterCampaign.sol\":738:1246   */\n    tag_12:\n      callvalue\n      dup1\n      iszero\n      tag_63\n      jumpi\n      0x00\n      dup1\n      revert\n    tag_63:\n      pop\n      tag_64\n      0x04\n      dup1\n      calldatasize\n      sub\n      dup2\n      add\n      swap1\n      tag_65\n      swap2\n      swap1\n      tag_66\n      jump\t// in\n    tag_65:\n      tag_67\n      jump\t// in\n    tag_64:\n      mload(0x40)\n      tag_68\n      swap2\n      swap1\n      tag_21\n      jump\t// in\n    tag_68:\n      mload(0x40)\n      dup1\n      swap2\n      sub\n      swap1\n      return\n        /* \"KickstarterCampaign.sol\":564:730   */\n    tag_13:\n      tag_69\n      tag_70\n      jump\t// in\n    tag_69:\n      stop\n        /* \"KickstarterCampaign.sol\":186:225   */\n    tag_19:\n      mstore(0x20, 0x02)\n      dup1\n      0x00\n      mstore\n      keccak256(0x00, 0x40)\n      0x00\n      swap2\n      pop\n      swap1\n      pop\n      sload\n      dup2\n      jump\t// out\n        /* \"KickstarterCampaign.sol\":232:256   */\n    tag_24:\n      sload(0x03)\n      dup2\n      jump\t// out\n        /* \"KickstarterCampaign.sol\":1254:1639   */\n    tag_30:\n        /* \"KickstarterCampaign.sol\":2543:2558   */\n      0x00\n      dup1\n      sload\n      swap1\n      0x0100\n      exp\n      swap1\n      div\n      0xffffffffffffffffffffffffffffffffffffffff\n      and\n        /* \"KickstarterCampaign.sol\":2529:2558   */\n      0xffffffffffffffffffffffffffffffffffffffff\n      and\n        /* \"KickstarterCampaign.sol\":2529:2539   */\n      caller\n        /* \"KickstarterCampaign.sol\":2529:2558   */\n      0xffffffffffffffffffffffffffffffffffffffff\n      and\n      eq\n        /* \"KickstarterCampaign.sol\":2521:2559   */\n      tag_72\n      jumpi\n      0x00\n      dup1\n      revert\n    tag_72:\n        /* \"KickstarterCampaign.sol\":1332:1370   */\n      0x00\n        /* \"KickstarterCampaign.sol\":1373:1389   */\n      0x05\n        /* \"KickstarterCampaign.sol\":1373:1401   */\n      0x00\n        /* \"KickstarterCampaign.sol\":1390:1400   */\n      dup4\n        /* \"KickstarterCampaign.sol\":1373:1401   */\n      dup2\n      mstore\n      0x20\n      add\n      swap1\n      dup2\n      mstore\n      0x20\n      add\n      0x00\n      keccak256\n        /* \"KickstarterCampaign.sol\":1332:1401   */\n      swap1\n      pop\n        /* \"KickstarterCampaign.sol\":1423:1437   */\n      dup1\n        /* \"KickstarterCampaign.sol\":1423:1446   */\n      0x02\n      add\n      0x14\n      swap1\n      sload\n      swap1\n      0x0100\n      exp\n      swap1\n      div\n      0xff\n      and\n        /* \"KickstarterCampaign.sol\":1422:1446   */\n      iszero\n        /* \"KickstarterCampaign.sol\":1414:1447   */\n      tag_74\n      jumpi\n      0x00\n      dup1\n      revert\n    tag_74:\n        /* \"KickstarterCampaign.sol\":1513:1514   */\n      0x02\n        /* \"KickstarterCampaign.sol\":1498:1510   */\n      sload(0x03)\n        /* \"KickstarterCampaign.sol\":1498:1514   */\n      tag_75\n      swap2\n      swap1\n      tag_76\n      jump\t// in\n    tag_75:\n        /* \"KickstarterCampaign.sol\":1466:1480   */\n      dup2\n        /* \"KickstarterCampaign.sol\":1466:1494   */\n      0x03\n      add\n      sload\n        /* \"KickstarterCampaign.sol\":1466:1515   */\n      gt\n        /* \"KickstarterCampaign.sol\":1458:1516   */\n      tag_77\n      jumpi\n      0x00\n      dup1\n      revert\n    tag_77:\n        /* \"KickstarterCampaign.sol\":1529:1543   */\n      dup1\n        /* \"KickstarterCampaign.sol\":1529:1553   */\n      0x02\n      add\n      0x00\n      swap1\n      sload\n      swap1\n      0x0100\n      exp\n      swap1\n      div\n      0xffffffffffffffffffffffffffffffffffffffff\n      and\n        /* \"KickstarterCampaign.sol\":1529:1562   */\n      0xffffffffffffffffffffffffffffffffffffffff\n      and\n        /* \"KickstarterCampaign.sol\":1529:1590   */\n      0x08fc\n        /* \"KickstarterCampaign.sol\":1563:1577   */\n      dup3\n        /* \"KickstarterCampaign.sol\":1563:1589   */\n      0x01\n      add\n      sload\n        /* \"KickstarterCampaign.sol\":1529:1590   */\n      swap1\n      dup2\n      iszero\n      mul\n      swap1\n      mload(0x40)\n      0x00\n      mload(0x40)\n      dup1\n      dup4\n      sub\n      dup2\n      dup6\n      dup9\n      dup9\n      call\n      swap4\n      pop\n      pop\n      pop\n      pop\n      iszero\n      dup1\n      iszero\n      tag_79\n      jumpi\n      returndatasize\n      0x00\n      dup1\n      returndatacopy\n      revert(0x00, returndatasize)\n    tag_79:\n      pop\n        /* \"KickstarterCampaign.sol\":1627:1631   */\n      0x01\n        /* \"KickstarterCampaign.sol\":1601:1615   */\n      dup2\n        /* \"KickstarterCampaign.sol\":1601:1624   */\n      0x02\n      add\n      0x14\n        /* \"KickstarterCampaign.sol\":1601:1631   */\n      0x0100\n      exp\n      dup2\n      sload\n      dup2\n      0xff\n      mul\n      not\n      and\n      swap1\n      dup4\n      iszero\n      iszero\n      mul\n      or\n      swap1\n      sstore\n      pop\n        /* \"KickstarterCampaign.sol\":1321:1639   */\n      pop\n        /* \"KickstarterCampaign.sol\":1254:1639   */\n      pop\n      jump\t// out\n        /* \"KickstarterCampaign.sol\":2388:2480   */\n    tag_33:\n        /* \"KickstarterCampaign.sol\":2437:2441   */\n      0x00\n        /* \"KickstarterCampaign.sol\":2461:2472   */\n      sload(0x04)\n        /* \"KickstarterCampaign.sol\":2454:2472   */\n      swap1\n      pop\n        /* \"KickstarterCampaign.sol\":2388:2480   */\n      swap1\n      jump\t// out\n        /* \"KickstarterCampaign.sol\":2114:2380   */\n    tag_37:\n        /* \"KickstarterCampaign.sol\":2157:2161   */\n      0x00\n        /* \"KickstarterCampaign.sol\":2163:2167   */\n      dup1\n        /* \"KickstarterCampaign.sol\":2169:2173   */\n      0x00\n        /* \"KickstarterCampaign.sol\":2175:2179   */\n      dup1\n        /* \"KickstarterCampaign.sol\":2181:2188   */\n      0x00\n        /* \"KickstarterCampaign.sol\":2223:2242   */\n      sload(0x01)\n        /* \"KickstarterCampaign.sol\":2257:2278   */\n      selfbalance\n        /* \"KickstarterCampaign.sol\":2293:2304   */\n      sload(0x04)\n        /* \"KickstarterCampaign.sol\":2319:2331   */\n      sload(0x03)\n        /* \"KickstarterCampaign.sol\":2346:2361   */\n      0x00\n      dup1\n      sload\n      swap1\n      0x0100\n      exp\n      swap1\n      div\n      0xffffffffffffffffffffffffffffffffffffffff\n      and\n        /* \"KickstarterCampaign.sol\":2201:2372   */\n      swap5\n      pop\n      swap5\n      pop\n      swap5\n      pop\n      swap5\n      pop\n      swap5\n      pop\n        /* \"KickstarterCampaign.sol\":2114:2380   */\n      swap1\n      swap2\n      swap3\n      swap4\n      swap5\n      jump\t// out\n        /* \"KickstarterCampaign.sol\":347:403   */\n    tag_43:\n      mstore(0x20, 0x05)\n      dup1\n      0x00\n      mstore\n      keccak256(0x00, 0x40)\n      0x00\n      swap2\n      pop\n      swap1\n      pop\n      dup1\n      0x00\n      add\n      dup1\n      sload\n      tag_82\n      swap1\n      tag_83\n      jump\t// in\n    tag_82:\n      dup1\n      0x1f\n      add\n      0x20\n      dup1\n      swap2\n      div\n      mul\n      0x20\n      add\n      mload(0x40)\n      swap1\n      dup2\n      add\n      0x40\n      mstore\n      dup1\n      swap3\n      swap2\n      swap1\n      dup2\n      dup2\n      mstore\n      0x20\n      add\n      dup3\n      dup1\n      sload\n      tag_84\n      swap1\n      tag_83\n      jump\t// in\n    tag_84:\n      dup1\n      iszero\n      tag_85\n      jumpi\n      dup1\n      0x1f\n      lt\n      tag_86\n      jumpi\n      0x0100\n      dup1\n      dup4\n      sload\n      div\n      mul\n      dup4\n      mstore\n      swap2\n      0x20\n      add\n      swap2\n      jump(tag_85)\n    tag_86:\n      dup3\n      add\n      swap2\n      swap1\n      0x00\n      mstore\n      keccak256(0x00, 0x20)\n      swap1\n    tag_87:\n      dup2\n      sload\n      dup2\n      mstore\n      swap1\n      0x01\n      add\n      swap1\n      0x20\n      add\n      dup1\n      dup4\n      gt\n      tag_87\n      jumpi\n      dup3\n      swap1\n      sub\n      0x1f\n      and\n      dup3\n      add\n      swap2\n    tag_85:\n      pop\n      pop\n      pop\n      pop\n      pop\n      swap1\n      dup1\n      0x01\n      add\n      sload\n      swap1\n      dup1\n      0x02\n      add\n      0x00\n      swap1\n      sload\n      swap1\n      0x0100\n      exp\n      swap1\n      div\n      0xffffffffffffffffffffffffffffffffffffffff\n      and\n      swap1\n      dup1\n      0x02\n      add\n      0x14\n      swap1\n      sload\n      swap1\n      0x0100\n      exp\n      swap1\n      div\n      0xff\n      and\n      swap1\n      dup1\n      0x03\n      add\n      sload\n      swap1\n      pop\n      dup6\n      jump\t// out\n        /* \"KickstarterCampaign.sol\":1647:2106   */\n    tag_49:\n        /* \"KickstarterCampaign.sol\":1775:1776   */\n      0x00\n        /* \"KickstarterCampaign.sol\":1753:1760   */\n      0x02\n        /* \"KickstarterCampaign.sol\":1753:1772   */\n      0x00\n        /* \"KickstarterCampaign.sol\":1761:1771   */\n      caller\n        /* \"KickstarterCampaign.sol\":1753:1772   */\n      0xffffffffffffffffffffffffffffffffffffffff\n      and\n      0xffffffffffffffffffffffffffffffffffffffff\n      and\n      dup2\n      mstore\n      0x20\n      add\n      swap1\n      dup2\n      mstore\n      0x20\n      add\n      0x00\n      keccak256\n      sload\n        /* \"KickstarterCampaign.sol\":1753:1776   */\n      gt\n        /* \"KickstarterCampaign.sol\":1745:1777   */\n      tag_89\n      jumpi\n      0x00\n      dup1\n      revert\n    tag_89:\n        /* \"KickstarterCampaign.sol\":1790:1828   */\n      0x00\n        /* \"KickstarterCampaign.sol\":1831:1847   */\n      0x05\n        /* \"KickstarterCampaign.sol\":1831:1859   */\n      0x00\n        /* \"KickstarterCampaign.sol\":1848:1858   */\n      dup4\n        /* \"KickstarterCampaign.sol\":1831:1859   */\n      dup2\n      mstore\n      0x20\n      add\n      swap1\n      dup2\n      mstore\n      0x20\n      add\n      0x00\n      keccak256\n        /* \"KickstarterCampaign.sol\":1790:1859   */\n      swap1\n      pop\n        /* \"KickstarterCampaign.sol\":1949:1963   */\n      dup1\n        /* \"KickstarterCampaign.sol\":1949:1980   */\n      0x04\n      add\n        /* \"KickstarterCampaign.sol\":1949:1992   */\n      0x00\n        /* \"KickstarterCampaign.sol\":1981:1991   */\n      caller\n        /* \"KickstarterCampaign.sol\":1949:1992   */\n      0xffffffffffffffffffffffffffffffffffffffff\n      and\n      0xffffffffffffffffffffffffffffffffffffffff\n      and\n      dup2\n      mstore\n      0x20\n      add\n      swap1\n      dup2\n      mstore\n      0x20\n      add\n      0x00\n      keccak256\n      0x00\n      swap1\n      sload\n      swap1\n      0x0100\n      exp\n      swap1\n      div\n      0xff\n      and\n        /* \"KickstarterCampaign.sol\":1947:1993   */\n      iszero\n        /* \"KickstarterCampaign.sol\":1939:1994   */\n      tag_90\n      jumpi\n      0x00\n      dup1\n      revert\n    tag_90:\n        /* \"KickstarterCampaign.sol\":2053:2057   */\n      0x01\n        /* \"KickstarterCampaign.sol\":2007:2021   */\n      dup2\n        /* \"KickstarterCampaign.sol\":2007:2038   */\n      0x04\n      add\n        /* \"KickstarterCampaign.sol\":2007:2050   */\n      0x00\n        /* \"KickstarterCampaign.sol\":2039:2049   */\n      caller\n        /* \"KickstarterCampaign.sol\":2007:2050   */\n      0xffffffffffffffffffffffffffffffffffffffff\n      and\n      0xffffffffffffffffffffffffffffffffffffffff\n      and\n      dup2\n      mstore\n      0x20\n      add\n      swap1\n      dup2\n      mstore\n      0x20\n      add\n      0x00\n      keccak256\n      0x00\n        /* \"KickstarterCampaign.sol\":2007:2057   */\n      0x0100\n      exp\n      dup2\n      sload\n      dup2\n      0xff\n      mul\n      not\n      and\n      swap1\n      dup4\n      iszero\n      iszero\n      mul\n      or\n      swap1\n      sstore\n      pop\n        /* \"KickstarterCampaign.sol\":2068:2082   */\n      dup1\n        /* \"KickstarterCampaign.sol\":2068:2096   */\n      0x03\n      add\n      0x00\n        /* \"KickstarterCampaign.sol\":2068:2098   */\n      dup2\n      sload\n      dup1\n      swap3\n      swap2\n      swap1\n      tag_91\n      swap1\n      tag_92\n      jump\t// in\n    tag_91:\n      swap2\n      swap1\n      pop\n      sstore\n      pop\n        /* \"KickstarterCampaign.sol\":1695:2106   */\n      pop\n        /* \"KickstarterCampaign.sol\":1647:2106   */\n      pop\n      jump\t// out\n        /* \"KickstarterCampaign.sol\":147:179   */\n    tag_52:\n      sload(0x01)\n      dup2\n      jump\t// out\n        /* \"KickstarterCampaign.sol\":317:340   */\n    tag_56:\n      sload(0x04)\n      dup2\n      jump\t// out\n        /* \"KickstarterCampaign.sol\":110:140   */\n    tag_60:\n      0x00\n      dup1\n      sload\n      swap1\n      0x0100\n      exp\n      swap1\n      div\n      0xffffffffffffffffffffffffffffffffffffffff\n      and\n      dup2\n      jump\t// out\n        /* \"KickstarterCampaign.sol\":738:1246   */\n    tag_67:\n        /* \"KickstarterCampaign.sol\":859:873   */\n      0x00\n        /* \"KickstarterCampaign.sol\":2543:2558   */\n      dup1\n      0x00\n      swap1\n      sload\n      swap1\n      0x0100\n      exp\n      swap1\n      div\n      0xffffffffffffffffffffffffffffffffffffffff\n      and\n        /* \"KickstarterCampaign.sol\":2529:2558   */\n      0xffffffffffffffffffffffffffffffffffffffff\n      and\n        /* \"KickstarterCampaign.sol\":2529:2539   */\n      caller\n        /* \"KickstarterCampaign.sol\":2529:2558   */\n      0xffffffffffffffffffffffffffffffffffffffff\n      and\n      eq\n        /* \"KickstarterCampaign.sol\":2521:2559   */\n      tag_94\n      jumpi\n      0x00\n      dup1\n      revert\n    tag_94:\n        /* \"KickstarterCampaign.sol\":897:908   */\n      0x04\n      0x00\n        /* \"KickstarterCampaign.sol\":897:910   */\n      dup2\n      sload\n      dup1\n      swap3\n      swap2\n      swap1\n      tag_96\n      swap1\n      tag_92\n      jump\t// in\n    tag_96:\n      swap2\n      swap1\n      pop\n      sstore\n        /* \"KickstarterCampaign.sol\":885:910   */\n      swap1\n      pop\n        /* \"KickstarterCampaign.sol\":921:960   */\n      0x00\n        /* \"KickstarterCampaign.sol\":963:979   */\n      0x05\n        /* \"KickstarterCampaign.sol\":963:990   */\n      0x00\n        /* \"KickstarterCampaign.sol\":980:989   */\n      dup4\n        /* \"KickstarterCampaign.sol\":963:990   */\n      dup2\n      mstore\n      0x20\n      add\n      swap1\n      dup2\n      mstore\n      0x20\n      add\n      0x00\n      keccak256\n        /* \"KickstarterCampaign.sol\":921:990   */\n      swap1\n      pop\n        /* \"KickstarterCampaign.sol\":1037:1046   */\n      dup3\n        /* \"KickstarterCampaign.sol\":1001:1016   */\n      dup2\n        /* \"KickstarterCampaign.sol\":1001:1026   */\n      0x02\n      add\n      0x00\n        /* \"KickstarterCampaign.sol\":1001:1047   */\n      0x0100\n      exp\n      dup2\n      sload\n      dup2\n      0xffffffffffffffffffffffffffffffffffffffff\n      mul\n      not\n      and\n      swap1\n      dup4\n      0xffffffffffffffffffffffffffffffffffffffff\n      and\n      mul\n      or\n      swap1\n      sstore\n      pop\n        /* \"KickstarterCampaign.sol\":1088:1099   */\n      dup4\n        /* \"KickstarterCampaign.sol\":1058:1073   */\n      dup2\n        /* \"KickstarterCampaign.sol\":1058:1085   */\n      0x01\n      add\n        /* \"KickstarterCampaign.sol\":1058:1099   */\n      dup2\n      swap1\n      sstore\n      pop\n        /* \"KickstarterCampaign.sol\":1140:1151   */\n      dup5\n        /* \"KickstarterCampaign.sol\":1110:1125   */\n      dup2\n        /* \"KickstarterCampaign.sol\":1110:1137   */\n      0x00\n      add\n        /* \"KickstarterCampaign.sol\":1110:1151   */\n      swap1\n      dup1\n      mload\n      swap1\n      0x20\n      add\n      swap1\n      tag_97\n      swap3\n      swap2\n      swap1\n      tag_98\n      jump\t// in\n    tag_97:\n      pop\n        /* \"KickstarterCampaign.sol\":1194:1195   */\n      0x00\n        /* \"KickstarterCampaign.sol\":1162:1177   */\n      dup2\n        /* \"KickstarterCampaign.sol\":1162:1191   */\n      0x03\n      add\n        /* \"KickstarterCampaign.sol\":1162:1195   */\n      dup2\n      swap1\n      sstore\n      pop\n        /* \"KickstarterCampaign.sol\":1233:1238   */\n      0x00\n        /* \"KickstarterCampaign.sol\":1206:1221   */\n      dup2\n        /* \"KickstarterCampaign.sol\":1206:1230   */\n      0x02\n      add\n      0x14\n        /* \"KickstarterCampaign.sol\":1206:1238   */\n      0x0100\n      exp\n      dup2\n      sload\n      dup2\n      0xff\n      mul\n      not\n      and\n      swap1\n      dup4\n      iszero\n      iszero\n      mul\n      or\n      swap1\n      sstore\n      pop\n        /* \"KickstarterCampaign.sol\":874:1246   */\n      pop\n        /* \"KickstarterCampaign.sol\":738:1246   */\n      swap4\n      swap3\n      pop\n      pop\n      pop\n      jump\t// out\n        /* \"KickstarterCampaign.sol\":564:730   */\n    tag_70:\n        /* \"KickstarterCampaign.sol\":632:651   */\n      sload(0x01)\n        /* \"KickstarterCampaign.sol\":620:629   */\n      callvalue\n        /* \"KickstarterCampaign.sol\":620:651   */\n      gt\n        /* \"KickstarterCampaign.sol\":612:652   */\n      tag_100\n      jumpi\n      0x00\n      dup1\n      revert\n    tag_100:\n        /* \"KickstarterCampaign.sol\":688:697   */\n      callvalue\n        /* \"KickstarterCampaign.sol\":665:672   */\n      0x02\n        /* \"KickstarterCampaign.sol\":665:684   */\n      0x00\n        /* \"KickstarterCampaign.sol\":673:683   */\n      caller\n        /* \"KickstarterCampaign.sol\":665:684   */\n      0xffffffffffffffffffffffffffffffffffffffff\n      and\n      0xffffffffffffffffffffffffffffffffffffffff\n      and\n      dup2\n      mstore\n      0x20\n      add\n      swap1\n      dup2\n      mstore\n      0x20\n      add\n      0x00\n      keccak256\n      0x00\n        /* \"KickstarterCampaign.sol\":665:697   */\n      dup3\n      dup3\n      sload\n      tag_101\n      swap2\n      swap1\n      tag_102\n      jump\t// in\n    tag_101:\n      swap3\n      pop\n      pop\n      dup2\n      swap1\n      sstore\n      pop\n        /* \"KickstarterCampaign.sol\":708:720   */\n      0x03\n      0x00\n        /* \"KickstarterCampaign.sol\":708:722   */\n      dup2\n      sload\n      dup1\n      swap3\n      swap2\n      swap1\n      tag_103\n      swap1\n      tag_92\n      jump\t// in\n    tag_103:\n      swap2\n      swap1\n      pop\n      sstore\n      pop\n        /* \"KickstarterCampaign.sol\":564:730   */\n      jump\t// out\n    tag_98:\n      dup3\n      dup1\n      sload\n      tag_104\n      swap1\n      tag_83\n      jump\t// in\n    tag_104:\n      swap1\n      0x00\n      mstore\n      keccak256(0x00, 0x20)\n      swap1\n      0x1f\n      add\n      0x20\n      swap1\n      div\n      dup2\n      add\n      swap3\n      dup3\n      tag_106\n      jumpi\n      0x00\n      dup6\n      sstore\n      jump(tag_105)\n    tag_106:\n      dup3\n      0x1f\n      lt\n      tag_107\n      jumpi\n      dup1\n      mload\n      not(0xff)\n      and\n      dup4\n      dup1\n      add\n      or\n      dup6\n      sstore\n      jump(tag_105)\n    tag_107:\n      dup3\n      dup1\n      add\n      0x01\n      add\n      dup6\n      sstore\n      dup3\n      iszero\n      tag_105\n      jumpi\n      swap2\n      dup3\n      add\n    tag_108:\n      dup3\n      dup2\n      gt\n      iszero\n      tag_109\n      jumpi\n      dup3\n      mload\n      dup3\n      sstore\n      swap2\n      0x20\n      add\n      swap2\n      swap1\n      0x01\n      add\n      swap1\n      jump(tag_108)\n    tag_109:\n    tag_105:\n      pop\n      swap1\n      pop\n      tag_110\n      swap2\n      swap1\n      tag_111\n      jump\t// in\n    tag_110:\n      pop\n      swap1\n      jump\t// out\n    tag_111:\n    tag_112:\n      dup1\n      dup3\n      gt\n      iszero\n      tag_113\n      jumpi\n      0x00\n      dup2\n      0x00\n      swap1\n      sstore\n      pop\n      0x01\n      add\n      jump(tag_112)\n    tag_113:\n      pop\n      swap1\n      jump\t// out\n        /* \"#utility.yul\":7:82   */\n    tag_114:\n        /* \"#utility.yul\":40:46   */\n      0x00\n        /* \"#utility.yul\":73:75   */\n      0x40\n        /* \"#utility.yul\":67:76   */\n      mload\n        /* \"#utility.yul\":57:76   */\n      swap1\n      pop\n        /* \"#utility.yul\":7:82   */\n      swap1\n      jump\t// out\n        /* \"#utility.yul\":88:205   */\n    tag_115:\n        /* \"#utility.yul\":197:198   */\n      0x00\n        /* \"#utility.yul\":194:195   */\n      dup1\n        /* \"#utility.yul\":187:199   */\n      revert\n        /* \"#utility.yul\":211:328   */\n    tag_116:\n        /* \"#utility.yul\":320:321   */\n      0x00\n        /* \"#utility.yul\":317:318   */\n      dup1\n        /* \"#utility.yul\":310:322   */\n      revert\n        /* \"#utility.yul\":334:460   */\n    tag_117:\n        /* \"#utility.yul\":371:378   */\n      0x00\n        /* \"#utility.yul\":411:453   */\n      0xffffffffffffffffffffffffffffffffffffffff\n        /* \"#utility.yul\":404:409   */\n      dup3\n        /* \"#utility.yul\":400:454   */\n      and\n        /* \"#utility.yul\":389:454   */\n      swap1\n      pop\n        /* \"#utility.yul\":334:460   */\n      swap2\n      swap1\n      pop\n      jump\t// out\n        /* \"#utility.yul\":466:562   */\n    tag_118:\n        /* \"#utility.yul\":503:510   */\n      0x00\n        /* \"#utility.yul\":532:556   */\n      tag_153\n        /* \"#utility.yul\":550:555   */\n      dup3\n        /* \"#utility.yul\":532:556   */\n      tag_117\n      jump\t// in\n    tag_153:\n        /* \"#utility.yul\":521:556   */\n      swap1\n      pop\n        /* \"#utility.yul\":466:562   */\n      swap2\n      swap1\n      pop\n      jump\t// out\n        /* \"#utility.yul\":568:690   */\n    tag_119:\n        /* \"#utility.yul\":641:665   */\n      tag_155\n        /* \"#utility.yul\":659:664   */\n      dup2\n        /* \"#utility.yul\":641:665   */\n      tag_118\n      jump\t// in\n    tag_155:\n        /* \"#utility.yul\":634:639   */\n      dup2\n        /* \"#utility.yul\":631:666   */\n      eq\n        /* \"#utility.yul\":621:684   */\n      tag_156\n      jumpi\n        /* \"#utility.yul\":680:681   */\n      0x00\n        /* \"#utility.yul\":677:678   */\n      dup1\n        /* \"#utility.yul\":670:682   */\n      revert\n        /* \"#utility.yul\":621:684   */\n    tag_156:\n        /* \"#utility.yul\":568:690   */\n      pop\n      jump\t// out\n        /* \"#utility.yul\":696:835   */\n    tag_120:\n        /* \"#utility.yul\":742:747   */\n      0x00\n        /* \"#utility.yul\":780:786   */\n      dup2\n        /* \"#utility.yul\":767:787   */\n      calldataload\n        /* \"#utility.yul\":758:787   */\n      swap1\n      pop\n        /* \"#utility.yul\":796:829   */\n      tag_158\n        /* \"#utility.yul\":823:828   */\n      dup2\n        /* \"#utility.yul\":796:829   */\n      tag_119\n      jump\t// in\n    tag_158:\n        /* \"#utility.yul\":696:835   */\n      swap3\n      swap2\n      pop\n      pop\n      jump\t// out\n        /* \"#utility.yul\":841:1170   */\n    tag_18:\n        /* \"#utility.yul\":900:906   */\n      0x00\n        /* \"#utility.yul\":949:951   */\n      0x20\n        /* \"#utility.yul\":937:946   */\n      dup3\n        /* \"#utility.yul\":928:935   */\n      dup5\n        /* \"#utility.yul\":924:947   */\n      sub\n        /* \"#utility.yul\":920:952   */\n      slt\n        /* \"#utility.yul\":917:1036   */\n      iszero\n      tag_160\n      jumpi\n        /* \"#utility.yul\":955:1034   */\n      tag_161\n      tag_115\n      jump\t// in\n    tag_161:\n        /* \"#utility.yul\":917:1036   */\n    tag_160:\n        /* \"#utility.yul\":1075:1076   */\n      0x00\n        /* \"#utility.yul\":1100:1153   */\n      tag_162\n        /* \"#utility.yul\":1145:1152   */\n      dup5\n        /* \"#utility.yul\":1136:1142   */\n      dup3\n        /* \"#utility.yul\":1125:1134   */\n      dup6\n        /* \"#utility.yul\":1121:1143   */\n      add\n        /* \"#utility.yul\":1100:1153   */\n      tag_120\n      jump\t// in\n    tag_162:\n        /* \"#utility.yul\":1090:1153   */\n      swap2\n      pop\n        /* \"#utility.yul\":1046:1163   */\n      pop\n        /* \"#utility.yul\":841:1170   */\n      swap3\n      swap2\n      pop\n      pop\n      jump\t// out\n        /* \"#utility.yul\":1176:1253   */\n    tag_121:\n        /* \"#utility.yul\":1213:1220   */\n      0x00\n        /* \"#utility.yul\":1242:1247   */\n      dup2\n        /* \"#utility.yul\":1231:1247   */\n      swap1\n      pop\n        /* \"#utility.yul\":1176:1253   */\n      swap2\n      swap1\n      pop\n      jump\t// out\n        /* \"#utility.yul\":1259:1377   */\n    tag_122:\n        /* \"#utility.yul\":1346:1370   */\n      tag_165\n        /* \"#utility.yul\":1364:1369   */\n      dup2\n        /* \"#utility.yul\":1346:1370   */\n      tag_121\n      jump\t// in\n    tag_165:\n        /* \"#utility.yul\":1341:1344   */\n      dup3\n        /* \"#utility.yul\":1334:1371   */\n      mstore\n        /* \"#utility.yul\":1259:1377   */\n      pop\n      pop\n      jump\t// out\n        /* \"#utility.yul\":1383:1605   */\n    tag_21:\n        /* \"#utility.yul\":1476:1480   */\n      0x00\n        /* \"#utility.yul\":1514:1516   */\n      0x20\n        /* \"#utility.yul\":1503:1512   */\n      dup3\n        /* \"#utility.yul\":1499:1517   */\n      add\n        /* \"#utility.yul\":1491:1517   */\n      swap1\n      pop\n        /* \"#utility.yul\":1527:1598   */\n      tag_167\n        /* \"#utility.yul\":1595:1596   */\n      0x00\n        /* \"#utility.yul\":1584:1593   */\n      dup4\n        /* \"#utility.yul\":1580:1597   */\n      add\n        /* \"#utility.yul\":1571:1577   */\n      dup5\n        /* \"#utility.yul\":1527:1598   */\n      tag_122\n      jump\t// in\n    tag_167:\n        /* \"#utility.yul\":1383:1605   */\n      swap3\n      swap2\n      pop\n      pop\n      jump\t// out\n        /* \"#utility.yul\":1611:1733   */\n    tag_123:\n        /* \"#utility.yul\":1684:1708   */\n      tag_169\n        /* \"#utility.yul\":1702:1707   */\n      dup2\n        /* \"#utility.yul\":1684:1708   */\n      tag_121\n      jump\t// in\n    tag_169:\n        /* \"#utility.yul\":1677:1682   */\n      dup2\n        /* \"#utility.yul\":1674:1709   */\n      eq\n        /* \"#utility.yul\":1664:1727   */\n      tag_170\n      jumpi\n        /* \"#utility.yul\":1723:1724   */\n      0x00\n        /* \"#utility.yul\":1720:1721   */\n      dup1\n        /* \"#utility.yul\":1713:1725   */\n      revert\n        /* \"#utility.yul\":1664:1727   */\n    tag_170:\n        /* \"#utility.yul\":1611:1733   */\n      pop\n      jump\t// out\n        /* \"#utility.yul\":1739:1878   */\n    tag_124:\n        /* \"#utility.yul\":1785:1790   */\n      0x00\n        /* \"#utility.yul\":1823:1829   */\n      dup2\n        /* \"#utility.yul\":1810:1830   */\n      calldataload\n        /* \"#utility.yul\":1801:1830   */\n      swap1\n      pop\n        /* \"#utility.yul\":1839:1872   */\n      tag_172\n        /* \"#utility.yul\":1866:1871   */\n      dup2\n        /* \"#utility.yul\":1839:1872   */\n      tag_123\n      jump\t// in\n    tag_172:\n        /* \"#utility.yul\":1739:1878   */\n      swap3\n      swap2\n      pop\n      pop\n      jump\t// out\n        /* \"#utility.yul\":1884:2213   */\n    tag_29:\n        /* \"#utility.yul\":1943:1949   */\n      0x00\n        /* \"#utility.yul\":1992:1994   */\n      0x20\n        /* \"#utility.yul\":1980:1989   */\n      dup3\n        /* \"#utility.yul\":1971:1978   */\n      dup5\n        /* \"#utility.yul\":1967:1990   */\n      sub\n        /* \"#utility.yul\":1963:1995   */\n      slt\n        /* \"#utility.yul\":1960:2079   */\n      iszero\n      tag_174\n      jumpi\n        /* \"#utility.yul\":1998:2077   */\n      tag_175\n      tag_115\n      jump\t// in\n    tag_175:\n        /* \"#utility.yul\":1960:2079   */\n    tag_174:\n        /* \"#utility.yul\":2118:2119   */\n      0x00\n        /* \"#utility.yul\":2143:2196   */\n      tag_176\n        /* \"#utility.yul\":2188:2195   */\n      dup5\n        /* \"#utility.yul\":2179:2185   */\n      dup3\n        /* \"#utility.yul\":2168:2177   */\n      dup6\n        /* \"#utility.yul\":2164:2186   */\n      add\n        /* \"#utility.yul\":2143:2196   */\n      tag_124\n      jump\t// in\n    tag_176:\n        /* \"#utility.yul\":2133:2196   */\n      swap2\n      pop\n        /* \"#utility.yul\":2089:2206   */\n      pop\n        /* \"#utility.yul\":1884:2213   */\n      swap3\n      swap2\n      pop\n      pop\n      jump\t// out\n        /* \"#utility.yul\":2219:2337   */\n    tag_125:\n        /* \"#utility.yul\":2306:2330   */\n      tag_178\n        /* \"#utility.yul\":2324:2329   */\n      dup2\n        /* \"#utility.yul\":2306:2330   */\n      tag_118\n      jump\t// in\n    tag_178:\n        /* \"#utility.yul\":2301:2304   */\n      dup3\n        /* \"#utility.yul\":2294:2331   */\n      mstore\n        /* \"#utility.yul\":2219:2337   */\n      pop\n      pop\n      jump\t// out\n        /* \"#utility.yul\":2343:3007   */\n    tag_39:\n        /* \"#utility.yul\":2548:2552   */\n      0x00\n        /* \"#utility.yul\":2586:2589   */\n      0xa0\n        /* \"#utility.yul\":2575:2584   */\n      dup3\n        /* \"#utility.yul\":2571:2590   */\n      add\n        /* \"#utility.yul\":2563:2590   */\n      swap1\n      pop\n        /* \"#utility.yul\":2600:2671   */\n      tag_180\n        /* \"#utility.yul\":2668:2669   */\n      0x00\n        /* \"#utility.yul\":2657:2666   */\n      dup4\n        /* \"#utility.yul\":2653:2670   */\n      add\n        /* \"#utility.yul\":2644:2650   */\n      dup9\n        /* \"#utility.yul\":2600:2671   */\n      tag_122\n      jump\t// in\n    tag_180:\n        /* \"#utility.yul\":2681:2753   */\n      tag_181\n        /* \"#utility.yul\":2749:2751   */\n      0x20\n        /* \"#utility.yul\":2738:2747   */\n      dup4\n        /* \"#utility.yul\":2734:2752   */\n      add\n        /* \"#utility.yul\":2725:2731   */\n      dup8\n        /* \"#utility.yul\":2681:2753   */\n      tag_122\n      jump\t// in\n    tag_181:\n        /* \"#utility.yul\":2763:2835   */\n      tag_182\n        /* \"#utility.yul\":2831:2833   */\n      0x40\n        /* \"#utility.yul\":2820:2829   */\n      dup4\n        /* \"#utility.yul\":2816:2834   */\n      add\n        /* \"#utility.yul\":2807:2813   */\n      dup7\n        /* \"#utility.yul\":2763:2835   */\n      tag_122\n      jump\t// in\n    tag_182:\n        /* \"#utility.yul\":2845:2917   */\n      tag_183\n        /* \"#utility.yul\":2913:2915   */\n      0x60\n        /* \"#utility.yul\":2902:2911   */\n      dup4\n        /* \"#utility.yul\":2898:2916   */\n      add\n        /* \"#utility.yul\":2889:2895   */\n      dup6\n        /* \"#utility.yul\":2845:2917   */\n      tag_122\n      jump\t// in\n    tag_183:\n        /* \"#utility.yul\":2927:3000   */\n      tag_184\n        /* \"#utility.yul\":2995:2998   */\n      0x80\n        /* \"#utility.yul\":2984:2993   */\n      dup4\n        /* \"#utility.yul\":2980:2999   */\n      add\n        /* \"#utility.yul\":2971:2977   */\n      dup5\n        /* \"#utility.yul\":2927:3000   */\n      tag_125\n      jump\t// in\n    tag_184:\n        /* \"#utility.yul\":2343:3007   */\n      swap7\n      swap6\n      pop\n      pop\n      pop\n      pop\n      pop\n      pop\n      jump\t// out\n        /* \"#utility.yul\":3013:3112   */\n    tag_126:\n        /* \"#utility.yul\":3065:3071   */\n      0x00\n        /* \"#utility.yul\":3099:3104   */\n      dup2\n        /* \"#utility.yul\":3093:3105   */\n      mload\n        /* \"#utility.yul\":3083:3105   */\n      swap1\n      pop\n        /* \"#utility.yul\":3013:3112   */\n      swap2\n      swap1\n      pop\n      jump\t// out\n        /* \"#utility.yul\":3118:3287   */\n    tag_127:\n        /* \"#utility.yul\":3202:3213   */\n      0x00\n        /* \"#utility.yul\":3236:3242   */\n      dup3\n        /* \"#utility.yul\":3231:3234   */\n      dup3\n        /* \"#utility.yul\":3224:3243   */\n      mstore\n        /* \"#utility.yul\":3276:3280   */\n      0x20\n        /* \"#utility.yul\":3271:3274   */\n      dup3\n        /* \"#utility.yul\":3267:3281   */\n      add\n        /* \"#utility.yul\":3252:3281   */\n      swap1\n      pop\n        /* \"#utility.yul\":3118:3287   */\n      swap3\n      swap2\n      pop\n      pop\n      jump\t// out\n        /* \"#utility.yul\":3293:3600   */\n    tag_128:\n        /* \"#utility.yul\":3361:3362   */\n      0x00\n        /* \"#utility.yul\":3371:3484   */\n    tag_188:\n        /* \"#utility.yul\":3385:3391   */\n      dup4\n        /* \"#utility.yul\":3382:3383   */\n      dup2\n        /* \"#utility.yul\":3379:3392   */\n      lt\n        /* \"#utility.yul\":3371:3484   */\n      iszero\n      tag_190\n      jumpi\n        /* \"#utility.yul\":3470:3471   */\n      dup1\n        /* \"#utility.yul\":3465:3468   */\n      dup3\n        /* \"#utility.yul\":3461:3472   */\n      add\n        /* \"#utility.yul\":3455:3473   */\n      mload\n        /* \"#utility.yul\":3451:3452   */\n      dup2\n        /* \"#utility.yul\":3446:3449   */\n      dup5\n        /* \"#utility.yul\":3442:3453   */\n      add\n        /* \"#utility.yul\":3435:3474   */\n      mstore\n        /* \"#utility.yul\":3407:3409   */\n      0x20\n        /* \"#utility.yul\":3404:3405   */\n      dup2\n        /* \"#utility.yul\":3400:3410   */\n      add\n        /* \"#utility.yul\":3395:3410   */\n      swap1\n      pop\n        /* \"#utility.yul\":3371:3484   */\n      jump(tag_188)\n    tag_190:\n        /* \"#utility.yul\":3502:3508   */\n      dup4\n        /* \"#utility.yul\":3499:3500   */\n      dup2\n        /* \"#utility.yul\":3496:3509   */\n      gt\n        /* \"#utility.yul\":3493:3594   */\n      iszero\n      tag_191\n      jumpi\n        /* \"#utility.yul\":3582:3583   */\n      0x00\n        /* \"#utility.yul\":3573:3579   */\n      dup5\n        /* \"#utility.yul\":3568:3571   */\n      dup5\n        /* \"#utility.yul\":3564:3580   */\n      add\n        /* \"#utility.yul\":3557:3584   */\n      mstore\n        /* \"#utility.yul\":3493:3594   */\n    tag_191:\n        /* \"#utility.yul\":3342:3600   */\n      pop\n        /* \"#utility.yul\":3293:3600   */\n      pop\n      pop\n      pop\n      jump\t// out\n        /* \"#utility.yul\":3606:3708   */\n    tag_129:\n        /* \"#utility.yul\":3647:3653   */\n      0x00\n        /* \"#utility.yul\":3698:3700   */\n      0x1f\n        /* \"#utility.yul\":3694:3701   */\n      not\n        /* \"#utility.yul\":3689:3691   */\n      0x1f\n        /* \"#utility.yul\":3682:3687   */\n      dup4\n        /* \"#utility.yul\":3678:3692   */\n      add\n        /* \"#utility.yul\":3674:3702   */\n      and\n        /* \"#utility.yul\":3664:3702   */\n      swap1\n      pop\n        /* \"#utility.yul\":3606:3708   */\n      swap2\n      swap1\n      pop\n      jump\t// out\n        /* \"#utility.yul\":3714:4078   */\n    tag_130:\n        /* \"#utility.yul\":3802:3805   */\n      0x00\n        /* \"#utility.yul\":3830:3869   */\n      tag_194\n        /* \"#utility.yul\":3863:3868   */\n      dup3\n        /* \"#utility.yul\":3830:3869   */\n      tag_126\n      jump\t// in\n    tag_194:\n        /* \"#utility.yul\":3885:3956   */\n      tag_195\n        /* \"#utility.yul\":3949:3955   */\n      dup2\n        /* \"#utility.yul\":3944:3947   */\n      dup6\n        /* \"#utility.yul\":3885:3956   */\n      tag_127\n      jump\t// in\n    tag_195:\n        /* \"#utility.yul\":3878:3956   */\n      swap4\n      pop\n        /* \"#utility.yul\":3965:4017   */\n      tag_196\n        /* \"#utility.yul\":4010:4016   */\n      dup2\n        /* \"#utility.yul\":4005:4008   */\n      dup6\n        /* \"#utility.yul\":3998:4002   */\n      0x20\n        /* \"#utility.yul\":3991:3996   */\n      dup7\n        /* \"#utility.yul\":3987:4003   */\n      add\n        /* \"#utility.yul\":3965:4017   */\n      tag_128\n      jump\t// in\n    tag_196:\n        /* \"#utility.yul\":4042:4071   */\n      tag_197\n        /* \"#utility.yul\":4064:4070   */\n      dup2\n        /* \"#utility.yul\":4042:4071   */\n      tag_129\n      jump\t// in\n    tag_197:\n        /* \"#utility.yul\":4037:4040   */\n      dup5\n        /* \"#utility.yul\":4033:4072   */\n      add\n        /* \"#utility.yul\":4026:4072   */\n      swap2\n      pop\n        /* \"#utility.yul\":3806:4078   */\n      pop\n        /* \"#utility.yul\":3714:4078   */\n      swap3\n      swap2\n      pop\n      pop\n      jump\t// out\n        /* \"#utility.yul\":4084:4188   */\n    tag_131:\n        /* \"#utility.yul\":4129:4136   */\n      0x00\n        /* \"#utility.yul\":4158:4182   */\n      tag_199\n        /* \"#utility.yul\":4176:4181   */\n      dup3\n        /* \"#utility.yul\":4158:4182   */\n      tag_117\n      jump\t// in\n    tag_199:\n        /* \"#utility.yul\":4147:4182   */\n      swap1\n      pop\n        /* \"#utility.yul\":4084:4188   */\n      swap2\n      swap1\n      pop\n      jump\t// out\n        /* \"#utility.yul\":4194:4336   */\n    tag_132:\n        /* \"#utility.yul\":4297:4329   */\n      tag_201\n        /* \"#utility.yul\":4323:4328   */\n      dup2\n        /* \"#utility.yul\":4297:4329   */\n      tag_131\n      jump\t// in\n    tag_201:\n        /* \"#utility.yul\":4292:4295   */\n      dup3\n        /* \"#utility.yul\":4285:4330   */\n      mstore\n        /* \"#utility.yul\":4194:4336   */\n      pop\n      pop\n      jump\t// out\n        /* \"#utility.yul\":4342:4432   */\n    tag_133:\n        /* \"#utility.yul\":4376:4383   */\n      0x00\n        /* \"#utility.yul\":4419:4424   */\n      dup2\n        /* \"#utility.yul\":4412:4425   */\n      iszero\n        /* \"#utility.yul\":4405:4426   */\n      iszero\n        /* \"#utility.yul\":4394:4426   */\n      swap1\n      pop\n        /* \"#utility.yul\":4342:4432   */\n      swap2\n      swap1\n      pop\n      jump\t// out\n        /* \"#utility.yul\":4438:4547   */\n    tag_134:\n        /* \"#utility.yul\":4519:4540   */\n      tag_204\n        /* \"#utility.yul\":4534:4539   */\n      dup2\n        /* \"#utility.yul\":4519:4540   */\n      tag_133\n      jump\t// in\n    tag_204:\n        /* \"#utility.yul\":4514:4517   */\n      dup3\n        /* \"#utility.yul\":4507:4541   */\n      mstore\n        /* \"#utility.yul\":4438:4547   */\n      pop\n      pop\n      jump\t// out\n        /* \"#utility.yul\":4553:5328   */\n    tag_45:\n        /* \"#utility.yul\":4788:4792   */\n      0x00\n        /* \"#utility.yul\":4826:4829   */\n      0xa0\n        /* \"#utility.yul\":4815:4824   */\n      dup3\n        /* \"#utility.yul\":4811:4830   */\n      add\n        /* \"#utility.yul\":4803:4830   */\n      swap1\n      pop\n        /* \"#utility.yul\":4876:4885   */\n      dup2\n        /* \"#utility.yul\":4870:4874   */\n      dup2\n        /* \"#utility.yul\":4866:4886   */\n      sub\n        /* \"#utility.yul\":4862:4863   */\n      0x00\n        /* \"#utility.yul\":4851:4860   */\n      dup4\n        /* \"#utility.yul\":4847:4864   */\n      add\n        /* \"#utility.yul\":4840:4887   */\n      mstore\n        /* \"#utility.yul\":4904:4982   */\n      tag_206\n        /* \"#utility.yul\":4977:4981   */\n      dup2\n        /* \"#utility.yul\":4968:4974   */\n      dup9\n        /* \"#utility.yul\":4904:4982   */\n      tag_130\n      jump\t// in\n    tag_206:\n        /* \"#utility.yul\":4896:4982   */\n      swap1\n      pop\n        /* \"#utility.yul\":4992:5064   */\n      tag_207\n        /* \"#utility.yul\":5060:5062   */\n      0x20\n        /* \"#utility.yul\":5049:5058   */\n      dup4\n        /* \"#utility.yul\":5045:5063   */\n      add\n        /* \"#utility.yul\":5036:5042   */\n      dup8\n        /* \"#utility.yul\":4992:5064   */\n      tag_122\n      jump\t// in\n    tag_207:\n        /* \"#utility.yul\":5074:5162   */\n      tag_208\n        /* \"#utility.yul\":5158:5160   */\n      0x40\n        /* \"#utility.yul\":5147:5156   */\n      dup4\n        /* \"#utility.yul\":5143:5161   */\n      add\n        /* \"#utility.yul\":5134:5140   */\n      dup7\n        /* \"#utility.yul\":5074:5162   */\n      tag_132\n      jump\t// in\n    tag_208:\n        /* \"#utility.yul\":5172:5238   */\n      tag_209\n        /* \"#utility.yul\":5234:5236   */\n      0x60\n        /* \"#utility.yul\":5223:5232   */\n      dup4\n        /* \"#utility.yul\":5219:5237   */\n      add\n        /* \"#utility.yul\":5210:5216   */\n      dup6\n        /* \"#utility.yul\":5172:5238   */\n      tag_134\n      jump\t// in\n    tag_209:\n        /* \"#utility.yul\":5248:5321   */\n      tag_210\n        /* \"#utility.yul\":5316:5319   */\n      0x80\n        /* \"#utility.yul\":5305:5314   */\n      dup4\n        /* \"#utility.yul\":5301:5320   */\n      add\n        /* \"#utility.yul\":5292:5298   */\n      dup5\n        /* \"#utility.yul\":5248:5321   */\n      tag_122\n      jump\t// in\n    tag_210:\n        /* \"#utility.yul\":4553:5328   */\n      swap7\n      swap6\n      pop\n      pop\n      pop\n      pop\n      pop\n      pop\n      jump\t// out\n        /* \"#utility.yul\":5334:5556   */\n    tag_62:\n        /* \"#utility.yul\":5427:5431   */\n      0x00\n        /* \"#utility.yul\":5465:5467   */\n      0x20\n        /* \"#utility.yul\":5454:5463   */\n      dup3\n        /* \"#utility.yul\":5450:5468   */\n      add\n        /* \"#utility.yul\":5442:5468   */\n      swap1\n      pop\n        /* \"#utility.yul\":5478:5549   */\n      tag_212\n        /* \"#utility.yul\":5546:5547   */\n      0x00\n        /* \"#utility.yul\":5535:5544   */\n      dup4\n        /* \"#utility.yul\":5531:5548   */\n      add\n        /* \"#utility.yul\":5522:5528   */\n      dup5\n        /* \"#utility.yul\":5478:5549   */\n      tag_125\n      jump\t// in\n    tag_212:\n        /* \"#utility.yul\":5334:5556   */\n      swap3\n      swap2\n      pop\n      pop\n      jump\t// out\n        /* \"#utility.yul\":5562:5679   */\n    tag_135:\n        /* \"#utility.yul\":5671:5672   */\n      0x00\n        /* \"#utility.yul\":5668:5669   */\n      dup1\n        /* \"#utility.yul\":5661:5673   */\n      revert\n        /* \"#utility.yul\":5685:5802   */\n    tag_136:\n        /* \"#utility.yul\":5794:5795   */\n      0x00\n        /* \"#utility.yul\":5791:5792   */\n      dup1\n        /* \"#utility.yul\":5784:5796   */\n      revert\n        /* \"#utility.yul\":5808:5988   */\n    tag_137:\n        /* \"#utility.yul\":5856:5933   */\n      0x4e487b7100000000000000000000000000000000000000000000000000000000\n        /* \"#utility.yul\":5853:5854   */\n      0x00\n        /* \"#utility.yul\":5846:5934   */\n      mstore\n        /* \"#utility.yul\":5953:5957   */\n      0x41\n        /* \"#utility.yul\":5950:5951   */\n      0x04\n        /* \"#utility.yul\":5943:5958   */\n      mstore\n        /* \"#utility.yul\":5977:5981   */\n      0x24\n        /* \"#utility.yul\":5974:5975   */\n      0x00\n        /* \"#utility.yul\":5967:5982   */\n      revert\n        /* \"#utility.yul\":5994:6275   */\n    tag_138:\n        /* \"#utility.yul\":6077:6104   */\n      tag_217\n        /* \"#utility.yul\":6099:6103   */\n      dup3\n        /* \"#utility.yul\":6077:6104   */\n      tag_129\n      jump\t// in\n    tag_217:\n        /* \"#utility.yul\":6069:6075   */\n      dup2\n        /* \"#utility.yul\":6065:6105   */\n      add\n        /* \"#utility.yul\":6207:6213   */\n      dup2\n        /* \"#utility.yul\":6195:6205   */\n      dup2\n        /* \"#utility.yul\":6192:6214   */\n      lt\n        /* \"#utility.yul\":6171:6189   */\n      0xffffffffffffffff\n        /* \"#utility.yul\":6159:6169   */\n      dup3\n        /* \"#utility.yul\":6156:6190   */\n      gt\n        /* \"#utility.yul\":6153:6215   */\n      or\n        /* \"#utility.yul\":6150:6238   */\n      iszero\n      tag_218\n      jumpi\n        /* \"#utility.yul\":6218:6236   */\n      tag_219\n      tag_137\n      jump\t// in\n    tag_219:\n        /* \"#utility.yul\":6150:6238   */\n    tag_218:\n        /* \"#utility.yul\":6258:6268   */\n      dup1\n        /* \"#utility.yul\":6254:6256   */\n      0x40\n        /* \"#utility.yul\":6247:6269   */\n      mstore\n        /* \"#utility.yul\":6037:6275   */\n      pop\n        /* \"#utility.yul\":5994:6275   */\n      pop\n      pop\n      jump\t// out\n        /* \"#utility.yul\":6281:6410   */\n    tag_139:\n        /* \"#utility.yul\":6315:6321   */\n      0x00\n        /* \"#utility.yul\":6342:6362   */\n      tag_221\n      tag_114\n      jump\t// in\n    tag_221:\n        /* \"#utility.yul\":6332:6362   */\n      swap1\n      pop\n        /* \"#utility.yul\":6371:6404   */\n      tag_222\n        /* \"#utility.yul\":6399:6403   */\n      dup3\n        /* \"#utility.yul\":6391:6397   */\n      dup3\n        /* \"#utility.yul\":6371:6404   */\n      tag_138\n      jump\t// in\n    tag_222:\n        /* \"#utility.yul\":6281:6410   */\n      swap2\n      swap1\n      pop\n      jump\t// out\n        /* \"#utility.yul\":6416:6724   */\n    tag_140:\n        /* \"#utility.yul\":6478:6482   */\n      0x00\n        /* \"#utility.yul\":6568:6586   */\n      0xffffffffffffffff\n        /* \"#utility.yul\":6560:6566   */\n      dup3\n        /* \"#utility.yul\":6557:6587   */\n      gt\n        /* \"#utility.yul\":6554:6610   */\n      iszero\n      tag_224\n      jumpi\n        /* \"#utility.yul\":6590:6608   */\n      tag_225\n      tag_137\n      jump\t// in\n    tag_225:\n        /* \"#utility.yul\":6554:6610   */\n    tag_224:\n        /* \"#utility.yul\":6628:6657   */\n      tag_226\n        /* \"#utility.yul\":6650:6656   */\n      dup3\n        /* \"#utility.yul\":6628:6657   */\n      tag_129\n      jump\t// in\n    tag_226:\n        /* \"#utility.yul\":6620:6657   */\n      swap1\n      pop\n        /* \"#utility.yul\":6712:6716   */\n      0x20\n        /* \"#utility.yul\":6706:6710   */\n      dup2\n        /* \"#utility.yul\":6702:6717   */\n      add\n        /* \"#utility.yul\":6694:6717   */\n      swap1\n      pop\n        /* \"#utility.yul\":6416:6724   */\n      swap2\n      swap1\n      pop\n      jump\t// out\n        /* \"#utility.yul\":6730:6884   */\n    tag_141:\n        /* \"#utility.yul\":6814:6820   */\n      dup3\n        /* \"#utility.yul\":6809:6812   */\n      dup2\n        /* \"#utility.yul\":6804:6807   */\n      dup4\n        /* \"#utility.yul\":6791:6821   */\n      calldatacopy\n        /* \"#utility.yul\":6876:6877   */\n      0x00\n        /* \"#utility.yul\":6867:6873   */\n      dup4\n        /* \"#utility.yul\":6862:6865   */\n      dup4\n        /* \"#utility.yul\":6858:6874   */\n      add\n        /* \"#utility.yul\":6851:6878   */\n      mstore\n        /* \"#utility.yul\":6730:6884   */\n      pop\n      pop\n      pop\n      jump\t// out\n        /* \"#utility.yul\":6890:7302   */\n    tag_142:\n        /* \"#utility.yul\":6968:6973   */\n      0x00\n        /* \"#utility.yul\":6993:7059   */\n      tag_229\n        /* \"#utility.yul\":7009:7058   */\n      tag_230\n        /* \"#utility.yul\":7051:7057   */\n      dup5\n        /* \"#utility.yul\":7009:7058   */\n      tag_140\n      jump\t// in\n    tag_230:\n        /* \"#utility.yul\":6993:7059   */\n      tag_139\n      jump\t// in\n    tag_229:\n        /* \"#utility.yul\":6984:7059   */\n      swap1\n      pop\n        /* \"#utility.yul\":7082:7088   */\n      dup3\n        /* \"#utility.yul\":7075:7080   */\n      dup2\n        /* \"#utility.yul\":7068:7089   */\n      mstore\n        /* \"#utility.yul\":7120:7124   */\n      0x20\n        /* \"#utility.yul\":7113:7118   */\n      dup2\n        /* \"#utility.yul\":7109:7125   */\n      add\n        /* \"#utility.yul\":7158:7161   */\n      dup5\n        /* \"#utility.yul\":7149:7155   */\n      dup5\n        /* \"#utility.yul\":7144:7147   */\n      dup5\n        /* \"#utility.yul\":7140:7156   */\n      add\n        /* \"#utility.yul\":7137:7162   */\n      gt\n        /* \"#utility.yul\":7134:7246   */\n      iszero\n      tag_231\n      jumpi\n        /* \"#utility.yul\":7165:7244   */\n      tag_232\n      tag_136\n      jump\t// in\n    tag_232:\n        /* \"#utility.yul\":7134:7246   */\n    tag_231:\n        /* \"#utility.yul\":7255:7296   */\n      tag_233\n        /* \"#utility.yul\":7289:7295   */\n      dup5\n        /* \"#utility.yul\":7284:7287   */\n      dup3\n        /* \"#utility.yul\":7279:7282   */\n      dup6\n        /* \"#utility.yul\":7255:7296   */\n      tag_141\n      jump\t// in\n    tag_233:\n        /* \"#utility.yul\":6974:7302   */\n      pop\n        /* \"#utility.yul\":6890:7302   */\n      swap4\n      swap3\n      pop\n      pop\n      pop\n      jump\t// out\n        /* \"#utility.yul\":7322:7662   */\n    tag_143:\n        /* \"#utility.yul\":7378:7383   */\n      0x00\n        /* \"#utility.yul\":7427:7430   */\n      dup3\n        /* \"#utility.yul\":7420:7424   */\n      0x1f\n        /* \"#utility.yul\":7412:7418   */\n      dup4\n        /* \"#utility.yul\":7408:7425   */\n      add\n        /* \"#utility.yul\":7404:7431   */\n      slt\n        /* \"#utility.yul\":7394:7516   */\n      tag_235\n      jumpi\n        /* \"#utility.yul\":7435:7514   */\n      tag_236\n      tag_135\n      jump\t// in\n    tag_236:\n        /* \"#utility.yul\":7394:7516   */\n    tag_235:\n        /* \"#utility.yul\":7552:7558   */\n      dup2\n        /* \"#utility.yul\":7539:7559   */\n      calldataload\n        /* \"#utility.yul\":7577:7656   */\n      tag_237\n        /* \"#utility.yul\":7652:7655   */\n      dup5\n        /* \"#utility.yul\":7644:7650   */\n      dup3\n        /* \"#utility.yul\":7637:7641   */\n      0x20\n        /* \"#utility.yul\":7629:7635   */\n      dup7\n        /* \"#utility.yul\":7625:7642   */\n      add\n        /* \"#utility.yul\":7577:7656   */\n      tag_142\n      jump\t// in\n    tag_237:\n        /* \"#utility.yul\":7568:7656   */\n      swap2\n      pop\n        /* \"#utility.yul\":7384:7662   */\n      pop\n        /* \"#utility.yul\":7322:7662   */\n      swap3\n      swap2\n      pop\n      pop\n      jump\t// out\n        /* \"#utility.yul\":7668:8467   */\n    tag_66:\n        /* \"#utility.yul\":7755:7761   */\n      0x00\n        /* \"#utility.yul\":7763:7769   */\n      dup1\n        /* \"#utility.yul\":7771:7777   */\n      0x00\n        /* \"#utility.yul\":7820:7822   */\n      0x60\n        /* \"#utility.yul\":7808:7817   */\n      dup5\n        /* \"#utility.yul\":7799:7806   */\n      dup7\n        /* \"#utility.yul\":7795:7818   */\n      sub\n        /* \"#utility.yul\":7791:7823   */\n      slt\n        /* \"#utility.yul\":7788:7907   */\n      iszero\n      tag_239\n      jumpi\n        /* \"#utility.yul\":7826:7905   */\n      tag_240\n      tag_115\n      jump\t// in\n    tag_240:\n        /* \"#utility.yul\":7788:7907   */\n    tag_239:\n        /* \"#utility.yul\":7974:7975   */\n      0x00\n        /* \"#utility.yul\":7963:7972   */\n      dup5\n        /* \"#utility.yul\":7959:7976   */\n      add\n        /* \"#utility.yul\":7946:7977   */\n      calldataload\n        /* \"#utility.yul\":8004:8022   */\n      0xffffffffffffffff\n        /* \"#utility.yul\":7996:8002   */\n      dup2\n        /* \"#utility.yul\":7993:8023   */\n      gt\n        /* \"#utility.yul\":7990:8107   */\n      iszero\n      tag_241\n      jumpi\n        /* \"#utility.yul\":8026:8105   */\n      tag_242\n      tag_116\n      jump\t// in\n    tag_242:\n        /* \"#utility.yul\":7990:8107   */\n    tag_241:\n        /* \"#utility.yul\":8131:8194   */\n      tag_243\n        /* \"#utility.yul\":8186:8193   */\n      dup7\n        /* \"#utility.yul\":8177:8183   */\n      dup3\n        /* \"#utility.yul\":8166:8175   */\n      dup8\n        /* \"#utility.yul\":8162:8184   */\n      add\n        /* \"#utility.yul\":8131:8194   */\n      tag_143\n      jump\t// in\n    tag_243:\n        /* \"#utility.yul\":8121:8194   */\n      swap4\n      pop\n        /* \"#utility.yul\":7917:8204   */\n      pop\n        /* \"#utility.yul\":8243:8245   */\n      0x20\n        /* \"#utility.yul\":8269:8322   */\n      tag_244\n        /* \"#utility.yul\":8314:8321   */\n      dup7\n        /* \"#utility.yul\":8305:8311   */\n      dup3\n        /* \"#utility.yul\":8294:8303   */\n      dup8\n        /* \"#utility.yul\":8290:8312   */\n      add\n        /* \"#utility.yul\":8269:8322   */\n      tag_124\n      jump\t// in\n    tag_244:\n        /* \"#utility.yul\":8259:8322   */\n      swap3\n      pop\n        /* \"#utility.yul\":8214:8332   */\n      pop\n        /* \"#utility.yul\":8371:8373   */\n      0x40\n        /* \"#utility.yul\":8397:8450   */\n      tag_245\n        /* \"#utility.yul\":8442:8449   */\n      dup7\n        /* \"#utility.yul\":8433:8439   */\n      dup3\n        /* \"#utility.yul\":8422:8431   */\n      dup8\n        /* \"#utility.yul\":8418:8440   */\n      add\n        /* \"#utility.yul\":8397:8450   */\n      tag_120\n      jump\t// in\n    tag_245:\n        /* \"#utility.yul\":8387:8450   */\n      swap2\n      pop\n        /* \"#utility.yul\":8342:8460   */\n      pop\n        /* \"#utility.yul\":7668:8467   */\n      swap3\n      pop\n      swap3\n      pop\n      swap3\n      jump\t// out\n        /* \"#utility.yul\":8473:8653   */\n    tag_144:\n        /* \"#utility.yul\":8521:8598   */\n      0x4e487b7100000000000000000000000000000000000000000000000000000000\n        /* \"#utility.yul\":8518:8519   */\n      0x00\n        /* \"#utility.yul\":8511:8599   */\n      mstore\n        /* \"#utility.yul\":8618:8622   */\n      0x12\n        /* \"#utility.yul\":8615:8616   */\n      0x04\n        /* \"#utility.yul\":8608:8623   */\n      mstore\n        /* \"#utility.yul\":8642:8646   */\n      0x24\n        /* \"#utility.yul\":8639:8640   */\n      0x00\n        /* \"#utility.yul\":8632:8647   */\n      revert\n        /* \"#utility.yul\":8659:8839   */\n    tag_145:\n        /* \"#utility.yul\":8707:8784   */\n      0x4e487b7100000000000000000000000000000000000000000000000000000000\n        /* \"#utility.yul\":8704:8705   */\n      0x00\n        /* \"#utility.yul\":8697:8785   */\n      mstore\n        /* \"#utility.yul\":8804:8808   */\n      0x11\n        /* \"#utility.yul\":8801:8802   */\n      0x04\n        /* \"#utility.yul\":8794:8809   */\n      mstore\n        /* \"#utility.yul\":8828:8832   */\n      0x24\n        /* \"#utility.yul\":8825:8826   */\n      0x00\n        /* \"#utility.yul\":8818:8833   */\n      revert\n        /* \"#utility.yul\":8845:9030   */\n    tag_76:\n        /* \"#utility.yul\":8885:8886   */\n      0x00\n        /* \"#utility.yul\":8902:8922   */\n      tag_249\n        /* \"#utility.yul\":8920:8921   */\n      dup3\n        /* \"#utility.yul\":8902:8922   */\n      tag_121\n      jump\t// in\n    tag_249:\n        /* \"#utility.yul\":8897:8922   */\n      swap2\n      pop\n        /* \"#utility.yul\":8936:8956   */\n      tag_250\n        /* \"#utility.yul\":8954:8955   */\n      dup4\n        /* \"#utility.yul\":8936:8956   */\n      tag_121\n      jump\t// in\n    tag_250:\n        /* \"#utility.yul\":8931:8956   */\n      swap3\n      pop\n        /* \"#utility.yul\":8975:8976   */\n      dup3\n        /* \"#utility.yul\":8965:9000   */\n      tag_251\n      jumpi\n        /* \"#utility.yul\":8980:8998   */\n      tag_252\n      tag_144\n      jump\t// in\n    tag_252:\n        /* \"#utility.yul\":8965:9000   */\n    tag_251:\n        /* \"#utility.yul\":9022:9023   */\n      dup3\n        /* \"#utility.yul\":9019:9020   */\n      dup3\n        /* \"#utility.yul\":9015:9024   */\n      div\n        /* \"#utility.yul\":9010:9024   */\n      swap1\n      pop\n        /* \"#utility.yul\":8845:9030   */\n      swap3\n      swap2\n      pop\n      pop\n      jump\t// out\n        /* \"#utility.yul\":9036:9216   */\n    tag_146:\n        /* \"#utility.yul\":9084:9161   */\n      0x4e487b7100000000000000000000000000000000000000000000000000000000\n        /* \"#utility.yul\":9081:9082   */\n      0x00\n        /* \"#utility.yul\":9074:9162   */\n      mstore\n        /* \"#utility.yul\":9181:9185   */\n      0x22\n        /* \"#utility.yul\":9178:9179   */\n      0x04\n        /* \"#utility.yul\":9171:9186   */\n      mstore\n        /* \"#utility.yul\":9205:9209   */\n      0x24\n        /* \"#utility.yul\":9202:9203   */\n      0x00\n        /* \"#utility.yul\":9195:9210   */\n      revert\n        /* \"#utility.yul\":9222:9542   */\n    tag_83:\n        /* \"#utility.yul\":9266:9272   */\n      0x00\n        /* \"#utility.yul\":9303:9304   */\n      0x02\n        /* \"#utility.yul\":9297:9301   */\n      dup3\n        /* \"#utility.yul\":9293:9305   */\n      div\n        /* \"#utility.yul\":9283:9305   */\n      swap1\n      pop\n        /* \"#utility.yul\":9350:9351   */\n      0x01\n        /* \"#utility.yul\":9344:9348   */\n      dup3\n        /* \"#utility.yul\":9340:9352   */\n      and\n        /* \"#utility.yul\":9371:9389   */\n      dup1\n        /* \"#utility.yul\":9361:9442   */\n      tag_255\n      jumpi\n        /* \"#utility.yul\":9427:9431   */\n      0x7f\n        /* \"#utility.yul\":9419:9425   */\n      dup3\n        /* \"#utility.yul\":9415:9432   */\n      and\n        /* \"#utility.yul\":9405:9432   */\n      swap2\n      pop\n        /* \"#utility.yul\":9361:9442   */\n    tag_255:\n        /* \"#utility.yul\":9489:9491   */\n      0x20\n        /* \"#utility.yul\":9481:9487   */\n      dup3\n        /* \"#utility.yul\":9478:9492   */\n      lt\n        /* \"#utility.yul\":9458:9476   */\n      dup2\n        /* \"#utility.yul\":9455:9493   */\n      eq\n        /* \"#utility.yul\":9452:9536   */\n      iszero\n      tag_256\n      jumpi\n        /* \"#utility.yul\":9508:9526   */\n      tag_257\n      tag_146\n      jump\t// in\n    tag_257:\n        /* \"#utility.yul\":9452:9536   */\n    tag_256:\n        /* \"#utility.yul\":9273:9542   */\n      pop\n        /* \"#utility.yul\":9222:9542   */\n      swap2\n      swap1\n      pop\n      jump\t// out\n        /* \"#utility.yul\":9548:9781   */\n    tag_92:\n        /* \"#utility.yul\":9587:9590   */\n      0x00\n        /* \"#utility.yul\":9610:9634   */\n      tag_259\n        /* \"#utility.yul\":9628:9633   */\n      dup3\n        /* \"#utility.yul\":9610:9634   */\n      tag_121\n      jump\t// in\n    tag_259:\n        /* \"#utility.yul\":9601:9634   */\n      swap2\n      pop\n        /* \"#utility.yul\":9656:9722   */\n      0xffffffffffffffffffffffffffffffffffffffffffffffffffffffffffffffff\n        /* \"#utility.yul\":9649:9654   */\n      dup3\n        /* \"#utility.yul\":9646:9723   */\n      eq\n        /* \"#utility.yul\":9643:9746   */\n      iszero\n      tag_260\n      jumpi\n        /* \"#utility.yul\":9726:9744   */\n      tag_261\n      tag_145\n      jump\t// in\n    tag_261:\n        /* \"#utility.yul\":9643:9746   */\n    tag_260:\n        /* \"#utility.yul\":9773:9774   */\n      0x01\n        /* \"#utility.yul\":9766:9771   */\n      dup3\n        /* \"#utility.yul\":9762:9775   */\n      add\n        /* \"#utility.yul\":9755:9775   */\n      swap1\n      pop\n        /* \"#utility.yul\":9548:9781   */\n      swap2\n      swap1\n      pop\n      jump\t// out\n        /* \"#utility.yul\":9787:10092   */\n    tag_102:\n        /* \"#utility.yul\":9827:9830   */\n      0x00\n        /* \"#utility.yul\":9846:9866   */\n      tag_263\n        /* \"#utility.yul\":9864:9865   */\n      dup3\n        /* \"#utility.yul\":9846:9866   */\n      tag_121\n      jump\t// in\n    tag_263:\n        /* \"#utility.yul\":9841:9866   */\n      swap2\n      pop\n        /* \"#utility.yul\":9880:9900   */\n      tag_264\n        /* \"#utility.yul\":9898:9899   */\n      dup4\n        /* \"#utility.yul\":9880:9900   */\n      tag_121\n      jump\t// in\n    tag_264:\n        /* \"#utility.yul\":9875:9900   */\n      swap3\n      pop\n        /* \"#utility.yul\":10034:10035   */\n      dup3\n        /* \"#utility.yul\":9966:10032   */\n      0xffffffffffffffffffffffffffffffffffffffffffffffffffffffffffffffff\n        /* \"#utility.yul\":9962:10036   */\n      sub\n        /* \"#utility.yul\":9959:9960   */\n      dup3\n        /* \"#utility.yul\":9956:10037   */\n      gt\n        /* \"#utility.yul\":9953:10060   */\n      iszero\n      tag_265\n      jumpi\n        /* \"#utility.yul\":10040:10058   */\n      tag_266\n      tag_145\n      jump\t// in\n    tag_266:\n        /* \"#utility.yul\":9953:10060   */\n    tag_265:\n        /* \"#utility.yul\":10084:10085   */\n      dup3\n        /* \"#utility.yul\":10081:10082   */\n      dup3\n        /* \"#utility.yul\":10077:10086   */\n      add\n        /* \"#utility.yul\":10070:10086   */\n      swap1\n      pop\n        /* \"#utility.yul\":9787:10092   */\n      swap3\n      swap2\n      pop\n      pop\n      jump\t// out\n\n    auxdata: 0xa2646970667358221220d0ea705416db9be96911817a7f79cab3ab4b071601535f0376b1262abcc88b7d64736f6c634300080a0033\n}\n","bytecode":{"linkReferences":{},"object":"60806040523480156200001157600080fd5b50604051620010c0380380620010c083398181016040528101906200003791906200012b565b806000806101000a81548173ffffffffffffffffffffffffffffffffffffffff021916908373ffffffffffffffffffffffffffffffffffffffff16021790555081600181905550505062000172565b600080fd5b6000819050919050565b620000a0816200008b565b8114620000ac57600080fd5b50565b600081519050620000c08162000095565b92915050565b600073ffffffffffffffffffffffffffffffffffffffff82169050919050565b6000620000f382620000c6565b9050919050565b6200010581620000e6565b81146200011157600080fd5b50565b6000815190506200012581620000fa565b92915050565b6000806040838503121562000145576200014462000086565b5b60006200015585828601620000af565b9250506020620001688582860162000114565b9150509250929050565b610f3e80620001826000396000f3fe6080604052600436106100a75760003560e01c8063700127ef11610064578063700127ef146101d8578063937e09b1146102015780639fb42b1f1461022c578063b39e12cf14610257578063cf97e29414610282578063d7bb99ba146102bf576100a7565b8063031b3677146100ac57806313a2e117146100e957806330559591146101145780633410452a1461013d5780634051ddac146101685780636c60a94214610197575b600080fd5b3480156100b857600080fd5b506100d360048036038101906100ce919061096f565b6102c9565b6040516100e091906109b5565b60405180910390f35b3480156100f557600080fd5b506100fe6102e1565b60405161010b91906109b5565b60405180910390f35b34801561012057600080fd5b5061013b600480360381019061013691906109fc565b6102e7565b005b34801561014957600080fd5b50610152610420565b60405161015f91906109b5565b60405180910390f35b34801561017457600080fd5b5061017d61042a565b60405161018e959493929190610a38565b60405180910390f35b3480156101a357600080fd5b506101be60048036038101906101b991906109fc565b61046e565b6040516101cf959493929190610b60565b60405180910390f35b3480156101e457600080fd5b506101ff60048036038101906101fa91906109fc565b610559565b005b34801561020d57600080fd5b5061021661068d565b60405161022391906109b5565b60405180910390f35b34801561023857600080fd5b50610241610693565b60405161024e91906109b5565b60405180910390f35b34801561026357600080fd5b5061026c610699565b6040516102799190610bba565b60405180910390f35b34801561028e57600080fd5b506102a960048036038101906102a49190610d0a565b6106bd565b6040516102b691906109b5565b60405180910390f35b6102c76107dc565b005b60026020528060005260406000206000915090505481565b60035481565b60008054906101000a900473ffffffffffffffffffffffffffffffffffffffff1673ffffffffffffffffffffffffffffffffffffffff163373ffffffffffffffffffffffffffffffffffffffff161461033f57600080fd5b60006005600083815260200190815260200160002090508060020160149054906101000a900460ff161561037257600080fd5b60026003546103819190610dd7565b81600301541161039057600080fd5b8060020160009054906101000a900473ffffffffffffffffffffffffffffffffffffffff1673ffffffffffffffffffffffffffffffffffffffff166108fc82600101549081150290604051600060405180830381858888f193505050501580156103fe573d6000803e3d6000fd5b5060018160020160146101000a81548160ff0219169083151502179055505050565b6000600454905090565b60008060008060006001544760045460035460008054906101000a900473ffffffffffffffffffffffffffffffffffffffff16945094509450945094509091929394565b600560205280600052604060002060009150905080600001805461049190610e37565b80601f01602080910402602001604051908101604052809291908181526020018280546104bd90610e37565b801561050a5780601f106104df5761010080835404028352916020019161050a565b820191906000526020600020905b8154815290600101906020018083116104ed57829003601f168201915b5050505050908060010154908060020160009054906101000a900473ffffffffffffffffffffffffffffffffffffffff16908060020160149054906101000a900460ff16908060030154905085565b6000600260003373ffffffffffffffffffffffffffffffffffffffff1673ffffffffffffffffffffffffffffffffffffffff16815260200190815260200160002054116105a557600080fd5b60006005600083815260200190815260200160002090508060040160003373ffffffffffffffffffffffffffffffffffffffff1673ffffffffffffffffffffffffffffffffffffffff16815260200190815260200160002060009054906101000a900460ff161561061557600080fd5b60018160040160003373ffffffffffffffffffffffffffffffffffffffff1673ffffffffffffffffffffffffffffffffffffffff16815260200190815260200160002060006101000a81548160ff02191690831515021790555080600301600081548092919061068490610e69565b91905055505050565b60015481565b60045481565b60008054906101000a900473ffffffffffffffffffffffffffffffffffffffff1681565b60008060009054906101000a900473ffffffffffffffffffffffffffffffffffffffff1673ffffffffffffffffffffffffffffffffffffffff163373ffffffffffffffffffffffffffffffffffffffff161461071857600080fd5b6004600081548092919061072b90610e69565b9190505590506000600560008381526020019081526020016000209050828160020160006101000a81548173ffffffffffffffffffffffffffffffffffffffff021916908373ffffffffffffffffffffffffffffffffffffffff160217905550838160010181905550848160000190805190602001906107ac92919061085a565b506000816003018190555060008160020160146101000a81548160ff021916908315150217905550509392505050565b60015434116107ea57600080fd5b34600260003373ffffffffffffffffffffffffffffffffffffffff1673ffffffffffffffffffffffffffffffffffffffff16815260200190815260200160002060008282546108399190610eb2565b925050819055506003600081548092919061085390610e69565b9190505550565b82805461086690610e37565b90600052602060002090601f01602090048101928261088857600085556108cf565b82601f106108a157805160ff19168380011785556108cf565b828001600101855582156108cf579182015b828111156108ce5782518255916020019190600101906108b3565b5b5090506108dc91906108e0565b5090565b5b808211156108f95760008160009055506001016108e1565b5090565b6000604051905090565b600080fd5b600080fd5b600073ffffffffffffffffffffffffffffffffffffffff82169050919050565b600061093c82610911565b9050919050565b61094c81610931565b811461095757600080fd5b50565b60008135905061096981610943565b92915050565b60006020828403121561098557610984610907565b5b60006109938482850161095a565b91505092915050565b6000819050919050565b6109af8161099c565b82525050565b60006020820190506109ca60008301846109a6565b92915050565b6109d98161099c565b81146109e457600080fd5b50565b6000813590506109f6816109d0565b92915050565b600060208284031215610a1257610a11610907565b5b6000610a20848285016109e7565b91505092915050565b610a3281610931565b82525050565b600060a082019050610a4d60008301886109a6565b610a5a60208301876109a6565b610a6760408301866109a6565b610a7460608301856109a6565b610a816080830184610a29565b9695505050505050565b600081519050919050565b600082825260208201905092915050565b60005b83811015610ac5578082015181840152602081019050610aaa565b83811115610ad4576000848401525b50505050565b6000601f19601f8301169050919050565b6000610af682610a8b565b610b008185610a96565b9350610b10818560208601610aa7565b610b1981610ada565b840191505092915050565b6000610b2f82610911565b9050919050565b610b3f81610b24565b82525050565b60008115159050919050565b610b5a81610b45565b82525050565b600060a0820190508181036000830152610b7a8188610aeb565b9050610b8960208301876109a6565b610b966040830186610b36565b610ba36060830185610b51565b610bb060808301846109a6565b9695505050505050565b6000602082019050610bcf6000830184610a29565b92915050565b600080fd5b600080fd5b7f4e487b7100000000000000000000000000000000000000000000000000000000600052604160045260246000fd5b610c1782610ada565b810181811067ffffffffffffffff82111715610c3657610c35610bdf565b5b80604052505050565b6000610c496108fd565b9050610c558282610c0e565b919050565b600067ffffffffffffffff821115610c7557610c74610bdf565b5b610c7e82610ada565b9050602081019050919050565b82818337600083830152505050565b6000610cad610ca884610c5a565b610c3f565b905082815260208101848484011115610cc957610cc8610bda565b5b610cd4848285610c8b565b509392505050565b600082601f830112610cf157610cf0610bd5565b5b8135610d01848260208601610c9a565b91505092915050565b600080600060608486031215610d2357610d22610907565b5b600084013567ffffffffffffffff811115610d4157610d4061090c565b5b610d4d86828701610cdc565b9350506020610d5e868287016109e7565b9250506040610d6f8682870161095a565b9150509250925092565b7f4e487b7100000000000000000000000000000000000000000000000000000000600052601260045260246000fd5b7f4e487b7100000000000000000000000000000000000000000000000000000000600052601160045260246000fd5b6000610de28261099c565b9150610ded8361099c565b925082610dfd57610dfc610d79565b5b828204905092915050565b7f4e487b7100000000000000000000000000000000000000000000000000000000600052602260045260246000fd5b60006002820490506001821680610e4f57607f821691505b60208210811415610e6357610e62610e08565b5b50919050565b6000610e748261099c565b91507fffffffffffffffffffffffffffffffffffffffffffffffffffffffffffffffff821415610ea757610ea6610da8565b5b600182019050919050565b6000610ebd8261099c565b9150610ec88361099c565b9250827fffffffffffffffffffffffffffffffffffffffffffffffffffffffffffffffff03821115610efd57610efc610da8565b5b82820190509291505056fea2646970667358221220d0ea705416db9be96911817a7f79cab3ab4b071601535f0376b1262abcc88b7d64736f6c634300080a0033","opcodes":"PUSH1 0x80 PUSH1 0x40 MSTORE CALLVALUE DUP1 ISZERO PUSH3 0x11 JUMPI PUSH1 0x0 DUP1 REVERT JUMPDEST POP PUSH1 0x40 MLOAD PUSH3 0x10C0 CODESIZE SUB DUP1 PUSH3 0x10C0 DUP4 CODECOPY DUP2 DUP2 ADD PUSH1 0x40 MSTORE DUP2 ADD SWAP1 PUSH3 0x37 SWAP2 SWAP1 PUSH3 0x12B JUMP JUMPDEST DUP1 PUSH1 0x0 DUP1 PUSH2 0x100 EXP DUP2 SLOAD DUP2 PUSH20 0xFFFFFFFFFFFFFFFFFFFFFFFFFFFFFFFFFFFFFFFF MUL NOT AND SWAP1 DUP4 PUSH20 0xFFFFFFFFFFFFFFFFFFFFFFFFFFFFFFFFFFFFFFFF AND MUL OR SWAP1 SSTORE POP DUP2 PUSH1 0x1 DUP2 SWAP1 SSTORE POP POP POP PUSH3 0x172 JUMP JUMPDEST PUSH1 0x0 DUP1 REVERT JUMPDEST PUSH1 0x0 DUP2 SWAP1 POP SWAP2 SWAP1 POP JUMP JUMPDEST PUSH3 0xA0 DUP2 PUSH3 0x8B JUMP JUMPDEST DUP2 EQ PUSH3 0xAC JUMPI PUSH1 0x0 DUP1 REVERT JUMPDEST POP JUMP JUMPDEST PUSH1 0x0 DUP2 MLOAD SWAP1 POP PUSH3 0xC0 DUP2 PUSH3 0x95 JUMP JUMPDEST SWAP3 SWAP2 POP POP JUMP JUMPDEST PUSH1 0x0 PUSH20 0xFFFFFFFFFFFFFFFFFFFFFFFFFFFFFFFFFFFFFFFF DUP3 AND SWAP1 POP SWAP2 SWAP1 POP JUMP JUMPDEST PUSH1 0x0 PUSH3 0xF3 DUP3 PUSH3 0xC6 JUMP JUMPDEST SWAP1 POP SWAP2 SWAP1 POP JUMP JUMPDEST PUSH3 0x105 DUP2 PUSH3 0xE6 JUMP JUMPDEST DUP2 EQ PUSH3 0x111 JUMPI PUSH1 0x0 DUP1 REVERT JUMPDEST POP JUMP JUMPDEST PUSH1 0x0 DUP2 MLOAD SWAP1 POP PUSH3 0x125 DUP2 PUSH3 0xFA JUMP JUMPDEST SWAP3 SWAP2 POP POP JUMP JUMPDEST PUSH1 0x0 DUP1 PUSH1 0x40 DUP4 DUP6 SUB SLT ISZERO PUSH3 0x145 JUMPI PUSH3 0x144 PUSH3 0x86 JUMP JUMPDEST JUMPDEST PUSH1 0x0 PUSH3 0x155 DUP6 DUP3 DUP7 ADD PUSH3 0xAF JUMP JUMPDEST SWAP3 POP POP PUSH1 0x20 PUSH3 0x168 DUP6 DUP3 DUP7 ADD PUSH3 0x114 JUMP JUMPDEST SWAP2 POP POP SWAP3 POP SWAP3 SWAP1 POP JUMP JUMPDEST PUSH2 0xF3E DUP1 PUSH3 0x182 PUSH1 0x0 CODECOPY PUSH1 0x0 RETURN INVALID PUSH1 0x80 PUSH1 0x40 MSTORE PUSH1 0x4 CALLDATASIZE LT PUSH2 0xA7 JUMPI PUSH1 0x0 CALLDATALOAD PUSH1 0xE0 SHR DUP1 PUSH4 0x700127EF GT PUSH2 0x64 JUMPI DUP1 PUSH4 0x700127EF EQ PUSH2 0x1D8 JUMPI DUP1 PUSH4 0x937E09B1 EQ PUSH2 0x201 JUMPI DUP1 PUSH4 0x9FB42B1F EQ PUSH2 0x22C JUMPI DUP1 PUSH4 0xB39E12CF EQ PUSH2 0x257 JUMPI DUP1 PUSH4 0xCF97E294 EQ PUSH2 0x282 JUMPI DUP1 PUSH4 0xD7BB99BA EQ PUSH2 0x2BF JUMPI PUSH2 0xA7 JUMP JUMPDEST DUP1 PUSH4 0x31B3677 EQ PUSH2 0xAC JUMPI DUP1 PUSH4 0x13A2E117 EQ PUSH2 0xE9 JUMPI DUP1 PUSH4 0x30559591 EQ PUSH2 0x114 JUMPI DUP1 PUSH4 0x3410452A EQ PUSH2 0x13D JUMPI DUP1 PUSH4 0x4051DDAC EQ PUSH2 0x168 JUMPI DUP1 PUSH4 0x6C60A942 EQ PUSH2 0x197 JUMPI JUMPDEST PUSH1 0x0 DUP1 REVERT JUMPDEST CALLVALUE DUP1 ISZERO PUSH2 0xB8 JUMPI PUSH1 0x0 DUP1 REVERT JUMPDEST POP PUSH2 0xD3 PUSH1 0x4 DUP1 CALLDATASIZE SUB DUP2 ADD SWAP1 PUSH2 0xCE SWAP2 SWAP1 PUSH2 0x96F JUMP JUMPDEST PUSH2 0x2C9 JUMP JUMPDEST PUSH1 0x40 MLOAD PUSH2 0xE0 SWAP2 SWAP1 PUSH2 0x9B5 JUMP JUMPDEST PUSH1 0x40 MLOAD DUP1 SWAP2 SUB SWAP1 RETURN JUMPDEST CALLVALUE DUP1 ISZERO PUSH2 0xF5 JUMPI PUSH1 0x0 DUP1 REVERT JUMPDEST POP PUSH2 0xFE PUSH2 0x2E1 JUMP JUMPDEST PUSH1 0x40 MLOAD PUSH2 0x10B SWAP2 SWAP1 PUSH2 0x9B5 JUMP JUMPDEST PUSH1 0x40 MLOAD DUP1 SWAP2 SUB SWAP1 RETURN JUMPDEST CALLVALUE DUP1 ISZERO PUSH2 0x120 JUMPI PUSH1 0x0 DUP1 REVERT JUMPDEST POP PUSH2 0x13B PUSH1 0x4 DUP1 CALLDATASIZE SUB DUP2 ADD SWAP1 PUSH2 0x136 SWAP2 SWAP1 PUSH2 0x9FC JUMP JUMPDEST PUSH2 0x2E7 JUMP JUMPDEST STOP JUMPDEST CALLVALUE DUP1 ISZERO PUSH2 0x149 JUMPI PUSH1 0x0 DUP1 REVERT JUMPDEST POP PUSH2 0x152 PUSH2 0x420 JUMP JUMPDEST PUSH1 0x40 MLOAD PUSH2 0x15F SWAP2 SWAP1 PUSH2 0x9B5 JUMP JUMPDEST PUSH1 0x40 MLOAD DUP1 SWAP2 SUB SWAP1 RETURN JUMPDEST CALLVALUE DUP1 ISZERO PUSH2 0x174 JUMPI PUSH1 0x0 DUP1 REVERT JUMPDEST POP PUSH2 0x17D PUSH2 0x42A JUMP JUMPDEST PUSH1 0x40 MLOAD PUSH2 0x18E SWAP6 SWAP5 SWAP4 SWAP3 SWAP2 SWAP1 PUSH2 0xA38 JUMP JUMPDEST PUSH1 0x40 MLOAD DUP1 SWAP2 SUB SWAP1 RETURN JUMPDEST CALLVALUE DUP1 ISZERO PUSH2 0x1A3 JUMPI PUSH1 0x0 DUP1 REVERT JUMPDEST POP PUSH2 0x1BE PUSH1 0x4 DUP1 CALLDATASIZE SUB DUP2 ADD SWAP1 PUSH2 0x1B9 SWAP2 SWAP1 PUSH2 0x9FC JUMP JUMPDEST PUSH2 0x46E JUMP JUMPDEST PUSH1 0x40 MLOAD PUSH2 0x1CF SWAP6 SWAP5 SWAP4 SWAP3 SWAP2 SWAP1 PUSH2 0xB60 JUMP JUMPDEST PUSH1 0x40 MLOAD DUP1 SWAP2 SUB SWAP1 RETURN JUMPDEST CALLVALUE DUP1 ISZERO PUSH2 0x1E4 JUMPI PUSH1 0x0 DUP1 REVERT JUMPDEST POP PUSH2 0x1FF PUSH1 0x4 DUP1 CALLDATASIZE SUB DUP2 ADD SWAP1 PUSH2 0x1FA SWAP2 SWAP1 PUSH2 0x9FC JUMP JUMPDEST PUSH2 0x559 JUMP JUMPDEST STOP JUMPDEST CALLVALUE DUP1 ISZERO PUSH2 0x20D JUMPI PUSH1 0x0 DUP1 REVERT JUMPDEST POP PUSH2 0x216 PUSH2 0x68D JUMP JUMPDEST PUSH1 0x40 MLOAD PUSH2 0x223 SWAP2 SWAP1 PUSH2 0x9B5 JUMP JUMPDEST PUSH1 0x40 MLOAD DUP1 SWAP2 SUB SWAP1 RETURN JUMPDEST CALLVALUE DUP1 ISZERO PUSH2 0x238 JUMPI PUSH1 0x0 DUP1 REVERT JUMPDEST POP PUSH2 0x241 PUSH2 0x693 JUMP JUMPDEST PUSH1 0x40 MLOAD PUSH2 0x24E SWAP2 SWAP1 PUSH2 0x9B5 JUMP JUMPDEST PUSH1 0x40 MLOAD DUP1 SWAP2 SUB SWAP1 RETURN JUMPDEST CALLVALUE DUP1 ISZERO PUSH2 0x263 JUMPI PUSH1 0x0 DUP1 REVERT JUMPDEST POP PUSH2 0x26C PUSH2 0x699 JUMP JUMPDEST PUSH1 0x40 MLOAD PUSH2 0x279 SWAP2 SWAP1 PUSH2 0xBBA JUMP JUMPDEST PUSH1 0x40 MLOAD DUP1 SWAP2 SUB SWAP1 RETURN JUMPDEST CALLVALUE DUP1 ISZERO PUSH2 0x28E JUMPI PUSH1 0x0 DUP1 REVERT JUMPDEST POP PUSH2 0x2A9 PUSH1 0x4 DUP1 CALLDATASIZE SUB DUP2 ADD SWAP1 PUSH2 0x2A4 SWAP2 SWAP1 PUSH2 0xD0A JUMP JUMPDEST PUSH2 0x6BD JUMP JUMPDEST PUSH1 0x40 MLOAD PUSH2 0x2B6 SWAP2 SWAP1 PUSH2 0x9B5 JUMP JUMPDEST PUSH1 0x40 MLOAD DUP1 SWAP2 SUB SWAP1 RETURN JUMPDEST PUSH2 0x2C7 PUSH2 0x7DC JUMP JUMPDEST STOP JUMPDEST PUSH1 0x2 PUSH1 0x20 MSTORE DUP1 PUSH1 0x0 MSTORE PUSH1 0x40 PUSH1 0x0 KECCAK256 PUSH1 0x0 SWAP2 POP SWAP1 POP SLOAD DUP2 JUMP JUMPDEST PUSH1 0x3 SLOAD DUP2 JUMP JUMPDEST PUSH1 0x0 DUP1 SLOAD SWAP1 PUSH2 0x100 EXP SWAP1 DIV PUSH20 0xFFFFFFFFFFFFFFFFFFFFFFFFFFFFFFFFFFFFFFFF AND PUSH20 0xFFFFFFFFFFFFFFFFFFFFFFFFFFFFFFFFFFFFFFFF AND CALLER PUSH20 0xFFFFFFFFFFFFFFFFFFFFFFFFFFFFFFFFFFFFFFFF AND EQ PUSH2 0x33F JUMPI PUSH1 0x0 DUP1 REVERT JUMPDEST PUSH1 0x0 PUSH1 0x5 PUSH1 0x0 DUP4 DUP2 MSTORE PUSH1 0x20 ADD SWAP1 DUP2 MSTORE PUSH1 0x20 ADD PUSH1 0x0 KECCAK256 SWAP1 POP DUP1 PUSH1 0x2 ADD PUSH1 0x14 SWAP1 SLOAD SWAP1 PUSH2 0x100 EXP SWAP1 DIV PUSH1 0xFF AND ISZERO PUSH2 0x372 JUMPI PUSH1 0x0 DUP1 REVERT JUMPDEST PUSH1 0x2 PUSH1 0x3 SLOAD PUSH2 0x381 SWAP2 SWAP1 PUSH2 0xDD7 JUMP JUMPDEST DUP2 PUSH1 0x3 ADD SLOAD GT PUSH2 0x390 JUMPI PUSH1 0x0 DUP1 REVERT JUMPDEST DUP1 PUSH1 0x2 ADD PUSH1 0x0 SWAP1 SLOAD SWAP1 PUSH2 0x100 EXP SWAP1 DIV PUSH20 0xFFFFFFFFFFFFFFFFFFFFFFFFFFFFFFFFFFFFFFFF AND PUSH20 0xFFFFFFFFFFFFFFFFFFFFFFFFFFFFFFFFFFFFFFFF AND PUSH2 0x8FC DUP3 PUSH1 0x1 ADD SLOAD SWAP1 DUP2 ISZERO MUL SWAP1 PUSH1 0x40 MLOAD PUSH1 0x0 PUSH1 0x40 MLOAD DUP1 DUP4 SUB DUP2 DUP6 DUP9 DUP9 CALL SWAP4 POP POP POP POP ISZERO DUP1 ISZERO PUSH2 0x3FE JUMPI RETURNDATASIZE PUSH1 0x0 DUP1 RETURNDATACOPY RETURNDATASIZE PUSH1 0x0 REVERT JUMPDEST POP PUSH1 0x1 DUP2 PUSH1 0x2 ADD PUSH1 0x14 PUSH2 0x100 EXP DUP2 SLOAD DUP2 PUSH1 0xFF MUL NOT AND SWAP1 DUP4 ISZERO ISZERO MUL OR SWAP1 SSTORE POP POP POP JUMP JUMPDEST PUSH1 0x0 PUSH1 0x4 SLOAD SWAP1 POP SWAP1 JUMP JUMPDEST PUSH1 0x0 DUP1 PUSH1 0x0 DUP1 PUSH1 0x0 PUSH1 0x1 SLOAD SELFBALANCE PUSH1 0x4 SLOAD PUSH1 0x3 SLOAD PUSH1 0x0 DUP1 SLOAD SWAP1 PUSH2 0x100 EXP SWAP1 DIV PUSH20 0xFFFFFFFFFFFFFFFFFFFFFFFFFFFFFFFFFFFFFFFF AND SWAP5 POP SWAP5 POP SWAP5 POP SWAP5 POP SWAP5 POP SWAP1 SWAP2 SWAP3 SWAP4 SWAP5 JUMP JUMPDEST PUSH1 0x5 PUSH1 0x20 MSTORE DUP1 PUSH1 0x0 MSTORE PUSH1 0x40 PUSH1 0x0 KECCAK256 PUSH1 0x0 SWAP2 POP SWAP1 POP DUP1 PUSH1 0x0 ADD DUP1 SLOAD PUSH2 0x491 SWAP1 PUSH2 0xE37 JUMP JUMPDEST DUP1 PUSH1 0x1F ADD PUSH1 0x20 DUP1 SWAP2 DIV MUL PUSH1 0x20 ADD PUSH1 0x40 MLOAD SWAP1 DUP2 ADD PUSH1 0x40 MSTORE DUP1 SWAP3 SWAP2 SWAP1 DUP2 DUP2 MSTORE PUSH1 0x20 ADD DUP3 DUP1 SLOAD PUSH2 0x4BD SWAP1 PUSH2 0xE37 JUMP JUMPDEST DUP1 ISZERO PUSH2 0x50A JUMPI DUP1 PUSH1 0x1F LT PUSH2 0x4DF JUMPI PUSH2 0x100 DUP1 DUP4 SLOAD DIV MUL DUP4 MSTORE SWAP2 PUSH1 0x20 ADD SWAP2 PUSH2 0x50A JUMP JUMPDEST DUP3 ADD SWAP2 SWAP1 PUSH1 0x0 MSTORE PUSH1 0x20 PUSH1 0x0 KECCAK256 SWAP1 JUMPDEST DUP2 SLOAD DUP2 MSTORE SWAP1 PUSH1 0x1 ADD SWAP1 PUSH1 0x20 ADD DUP1 DUP4 GT PUSH2 0x4ED JUMPI DUP3 SWAP1 SUB PUSH1 0x1F AND DUP3 ADD SWAP2 JUMPDEST POP POP POP POP POP SWAP1 DUP1 PUSH1 0x1 ADD SLOAD SWAP1 DUP1 PUSH1 0x2 ADD PUSH1 0x0 SWAP1 SLOAD SWAP1 PUSH2 0x100 EXP SWAP1 DIV PUSH20 0xFFFFFFFFFFFFFFFFFFFFFFFFFFFFFFFFFFFFFFFF AND SWAP1 DUP1 PUSH1 0x2 ADD PUSH1 0x14 SWAP1 SLOAD SWAP1 PUSH2 0x100 EXP SWAP1 DIV PUSH1 0xFF AND SWAP1 DUP1 PUSH1 0x3 ADD SLOAD SWAP1 POP DUP6 JUMP JUMPDEST PUSH1 0x0 PUSH1 0x2 PUSH1 0x0 CALLER PUSH20 0xFFFFFFFFFFFFFFFFFFFFFFFFFFFFFFFFFFFFFFFF AND PUSH20 0xFFFFFFFFFFFFFFFFFFFFFFFFFFFFFFFFFFFFFFFF AND DUP2 MSTORE PUSH1 0x20 ADD SWAP1 DUP2 MSTORE PUSH1 0x20 ADD PUSH1 0x0 KECCAK256 SLOAD GT PUSH2 0x5A5 JUMPI PUSH1 0x0 DUP1 REVERT JUMPDEST PUSH1 0x0 PUSH1 0x5 PUSH1 0x0 DUP4 DUP2 MSTORE PUSH1 0x20 ADD SWAP1 DUP2 MSTORE PUSH1 0x20 ADD PUSH1 0x0 KECCAK256 SWAP1 POP DUP1 PUSH1 0x4 ADD PUSH1 0x0 CALLER PUSH20 0xFFFFFFFFFFFFFFFFFFFFFFFFFFFFFFFFFFFFFFFF AND PUSH20 0xFFFFFFFFFFFFFFFFFFFFFFFFFFFFFFFFFFFFFFFF AND DUP2 MSTORE PUSH1 0x20 ADD SWAP1 DUP2 MSTORE PUSH1 0x20 ADD PUSH1 0x0 KECCAK256 PUSH1 0x0 SWAP1 SLOAD SWAP1 PUSH2 0x100 EXP SWAP1 DIV PUSH1 0xFF AND ISZERO PUSH2 0x615 JUMPI PUSH1 0x0 DUP1 REVERT JUMPDEST PUSH1 0x1 DUP2 PUSH1 0x4 ADD PUSH1 0x0 CALLER PUSH20 0xFFFFFFFFFFFFFFFFFFFFFFFFFFFFFFFFFFFFFFFF AND PUSH20 0xFFFFFFFFFFFFFFFFFFFFFFFFFFFFFFFFFFFFFFFF AND DUP2 MSTORE PUSH1 0x20 ADD SWAP1 DUP2 MSTORE PUSH1 0x20 ADD PUSH1 0x0 KECCAK256 PUSH1 0x0 PUSH2 0x100 EXP DUP2 SLOAD DUP2 PUSH1 0xFF MUL NOT AND SWAP1 DUP4 ISZERO ISZERO MUL OR SWAP1 SSTORE POP DUP1 PUSH1 0x3 ADD PUSH1 0x0 DUP2 SLOAD DUP1 SWAP3 SWAP2 SWAP1 PUSH2 0x684 SWAP1 PUSH2 0xE69 JUMP JUMPDEST SWAP2 SWAP1 POP SSTORE POP POP POP JUMP JUMPDEST PUSH1 0x1 SLOAD DUP2 JUMP JUMPDEST PUSH1 0x4 SLOAD DUP2 JUMP JUMPDEST PUSH1 0x0 DUP1 SLOAD SWAP1 PUSH2 0x100 EXP SWAP1 DIV PUSH20 0xFFFFFFFFFFFFFFFFFFFFFFFFFFFFFFFFFFFFFFFF AND DUP2 JUMP JUMPDEST PUSH1 0x0 DUP1 PUSH1 0x0 SWAP1 SLOAD SWAP1 PUSH2 0x100 EXP SWAP1 DIV PUSH20 0xFFFFFFFFFFFFFFFFFFFFFFFFFFFFFFFFFFFFFFFF AND PUSH20 0xFFFFFFFFFFFFFFFFFFFFFFFFFFFFFFFFFFFFFFFF AND CALLER PUSH20 0xFFFFFFFFFFFFFFFFFFFFFFFFFFFFFFFFFFFFFFFF AND EQ PUSH2 0x718 JUMPI PUSH1 0x0 DUP1 REVERT JUMPDEST PUSH1 0x4 PUSH1 0x0 DUP2 SLOAD DUP1 SWAP3 SWAP2 SWAP1 PUSH2 0x72B SWAP1 PUSH2 0xE69 JUMP JUMPDEST SWAP2 SWAP1 POP SSTORE SWAP1 POP PUSH1 0x0 PUSH1 0x5 PUSH1 0x0 DUP4 DUP2 MSTORE PUSH1 0x20 ADD SWAP1 DUP2 MSTORE PUSH1 0x20 ADD PUSH1 0x0 KECCAK256 SWAP1 POP DUP3 DUP2 PUSH1 0x2 ADD PUSH1 0x0 PUSH2 0x100 EXP DUP2 SLOAD DUP2 PUSH20 0xFFFFFFFFFFFFFFFFFFFFFFFFFFFFFFFFFFFFFFFF MUL NOT AND SWAP1 DUP4 PUSH20 0xFFFFFFFFFFFFFFFFFFFFFFFFFFFFFFFFFFFFFFFF AND MUL OR SWAP1 SSTORE POP DUP4 DUP2 PUSH1 0x1 ADD DUP2 SWAP1 SSTORE POP DUP5 DUP2 PUSH1 0x0 ADD SWAP1 DUP1 MLOAD SWAP1 PUSH1 0x20 ADD SWAP1 PUSH2 0x7AC SWAP3 SWAP2 SWAP1 PUSH2 0x85A JUMP JUMPDEST POP PUSH1 0x0 DUP2 PUSH1 0x3 ADD DUP2 SWAP1 SSTORE POP PUSH1 0x0 DUP2 PUSH1 0x2 ADD PUSH1 0x14 PUSH2 0x100 EXP DUP2 SLOAD DUP2 PUSH1 0xFF MUL NOT AND SWAP1 DUP4 ISZERO ISZERO MUL OR SWAP1 SSTORE POP POP SWAP4 SWAP3 POP POP POP JUMP JUMPDEST PUSH1 0x1 SLOAD CALLVALUE GT PUSH2 0x7EA JUMPI PUSH1 0x0 DUP1 REVERT JUMPDEST CALLVALUE PUSH1 0x2 PUSH1 0x0 CALLER PUSH20 0xFFFFFFFFFFFFFFFFFFFFFFFFFFFFFFFFFFFFFFFF AND PUSH20 0xFFFFFFFFFFFFFFFFFFFFFFFFFFFFFFFFFFFFFFFF AND DUP2 MSTORE PUSH1 0x20 ADD SWAP1 DUP2 MSTORE PUSH1 0x20 ADD PUSH1 0x0 KECCAK256 PUSH1 0x0 DUP3 DUP3 SLOAD PUSH2 0x839 SWAP2 SWAP1 PUSH2 0xEB2 JUMP JUMPDEST SWAP3 POP POP DUP2 SWAP1 SSTORE POP PUSH1 0x3 PUSH1 0x0 DUP2 SLOAD DUP1 SWAP3 SWAP2 SWAP1 PUSH2 0x853 SWAP1 PUSH2 0xE69 JUMP JUMPDEST SWAP2 SWAP1 POP SSTORE POP JUMP JUMPDEST DUP3 DUP1 SLOAD PUSH2 0x866 SWAP1 PUSH2 0xE37 JUMP JUMPDEST SWAP1 PUSH1 0x0 MSTORE PUSH1 0x20 PUSH1 0x0 KECCAK256 SWAP1 PUSH1 0x1F ADD PUSH1 0x20 SWAP1 DIV DUP2 ADD SWAP3 DUP3 PUSH2 0x888 JUMPI PUSH1 0x0 DUP6 SSTORE PUSH2 0x8CF JUMP JUMPDEST DUP3 PUSH1 0x1F LT PUSH2 0x8A1 JUMPI DUP1 MLOAD PUSH1 0xFF NOT AND DUP4 DUP1 ADD OR DUP6 SSTORE PUSH2 0x8CF JUMP JUMPDEST DUP3 DUP1 ADD PUSH1 0x1 ADD DUP6 SSTORE DUP3 ISZERO PUSH2 0x8CF JUMPI SWAP2 DUP3 ADD JUMPDEST DUP3 DUP2 GT ISZERO PUSH2 0x8CE JUMPI DUP3 MLOAD DUP3 SSTORE SWAP2 PUSH1 0x20 ADD SWAP2 SWAP1 PUSH1 0x1 ADD SWAP1 PUSH2 0x8B3 JUMP JUMPDEST JUMPDEST POP SWAP1 POP PUSH2 0x8DC SWAP2 SWAP1 PUSH2 0x8E0 JUMP JUMPDEST POP SWAP1 JUMP JUMPDEST JUMPDEST DUP1 DUP3 GT ISZERO PUSH2 0x8F9 JUMPI PUSH1 0x0 DUP2 PUSH1 0x0 SWAP1 SSTORE POP PUSH1 0x1 ADD PUSH2 0x8E1 JUMP JUMPDEST POP SWAP1 JUMP JUMPDEST PUSH1 0x0 PUSH1 0x40 MLOAD SWAP1 POP SWAP1 JUMP JUMPDEST PUSH1 0x0 DUP1 REVERT JUMPDEST PUSH1 0x0 DUP1 REVERT JUMPDEST PUSH1 0x0 PUSH20 0xFFFFFFFFFFFFFFFFFFFFFFFFFFFFFFFFFFFFFFFF DUP3 AND SWAP1 POP SWAP2 SWAP1 POP JUMP JUMPDEST PUSH1 0x0 PUSH2 0x93C DUP3 PUSH2 0x911 JUMP JUMPDEST SWAP1 POP SWAP2 SWAP1 POP JUMP JUMPDEST PUSH2 0x94C DUP2 PUSH2 0x931 JUMP JUMPDEST DUP2 EQ PUSH2 0x957 JUMPI PUSH1 0x0 DUP1 REVERT JUMPDEST POP JUMP JUMPDEST PUSH1 0x0 DUP2 CALLDATALOAD SWAP1 POP PUSH2 0x969 DUP2 PUSH2 0x943 JUMP JUMPDEST SWAP3 SWAP2 POP POP JUMP JUMPDEST PUSH1 0x0 PUSH1 0x20 DUP3 DUP5 SUB SLT ISZERO PUSH2 0x985 JUMPI PUSH2 0x984 PUSH2 0x907 JUMP JUMPDEST JUMPDEST PUSH1 0x0 PUSH2 0x993 DUP5 DUP3 DUP6 ADD PUSH2 0x95A JUMP JUMPDEST SWAP2 POP POP SWAP3 SWAP2 POP POP JUMP JUMPDEST PUSH1 0x0 DUP2 SWAP1 POP SWAP2 SWAP1 POP JUMP JUMPDEST PUSH2 0x9AF DUP2 PUSH2 0x99C JUMP JUMPDEST DUP3 MSTORE POP POP JUMP JUMPDEST PUSH1 0x0 PUSH1 0x20 DUP3 ADD SWAP1 POP PUSH2 0x9CA PUSH1 0x0 DUP4 ADD DUP5 PUSH2 0x9A6 JUMP JUMPDEST SWAP3 SWAP2 POP POP JUMP JUMPDEST PUSH2 0x9D9 DUP2 PUSH2 0x99C JUMP JUMPDEST DUP2 EQ PUSH2 0x9E4 JUMPI PUSH1 0x0 DUP1 REVERT JUMPDEST POP JUMP JUMPDEST PUSH1 0x0 DUP2 CALLDATALOAD SWAP1 POP PUSH2 0x9F6 DUP2 PUSH2 0x9D0 JUMP JUMPDEST SWAP3 SWAP2 POP POP JUMP JUMPDEST PUSH1 0x0 PUSH1 0x20 DUP3 DUP5 SUB SLT ISZERO PUSH2 0xA12 JUMPI PUSH2 0xA11 PUSH2 0x907 JUMP JUMPDEST JUMPDEST PUSH1 0x0 PUSH2 0xA20 DUP5 DUP3 DUP6 ADD PUSH2 0x9E7 JUMP JUMPDEST SWAP2 POP POP SWAP3 SWAP2 POP POP JUMP JUMPDEST PUSH2 0xA32 DUP2 PUSH2 0x931 JUMP JUMPDEST DUP3 MSTORE POP POP JUMP JUMPDEST PUSH1 0x0 PUSH1 0xA0 DUP3 ADD SWAP1 POP PUSH2 0xA4D PUSH1 0x0 DUP4 ADD DUP9 PUSH2 0x9A6 JUMP JUMPDEST PUSH2 0xA5A PUSH1 0x20 DUP4 ADD DUP8 PUSH2 0x9A6 JUMP JUMPDEST PUSH2 0xA67 PUSH1 0x40 DUP4 ADD DUP7 PUSH2 0x9A6 JUMP JUMPDEST PUSH2 0xA74 PUSH1 0x60 DUP4 ADD DUP6 PUSH2 0x9A6 JUMP JUMPDEST PUSH2 0xA81 PUSH1 0x80 DUP4 ADD DUP5 PUSH2 0xA29 JUMP JUMPDEST SWAP7 SWAP6 POP POP POP POP POP POP JUMP JUMPDEST PUSH1 0x0 DUP2 MLOAD SWAP1 POP SWAP2 SWAP1 POP JUMP JUMPDEST PUSH1 0x0 DUP3 DUP3 MSTORE PUSH1 0x20 DUP3 ADD SWAP1 POP SWAP3 SWAP2 POP POP JUMP JUMPDEST PUSH1 0x0 JUMPDEST DUP4 DUP2 LT ISZERO PUSH2 0xAC5 JUMPI DUP1 DUP3 ADD MLOAD DUP2 DUP5 ADD MSTORE PUSH1 0x20 DUP2 ADD SWAP1 POP PUSH2 0xAAA JUMP JUMPDEST DUP4 DUP2 GT ISZERO PUSH2 0xAD4 JUMPI PUSH1 0x0 DUP5 DUP5 ADD MSTORE JUMPDEST POP POP POP POP JUMP JUMPDEST PUSH1 0x0 PUSH1 0x1F NOT PUSH1 0x1F DUP4 ADD AND SWAP1 POP SWAP2 SWAP1 POP JUMP JUMPDEST PUSH1 0x0 PUSH2 0xAF6 DUP3 PUSH2 0xA8B JUMP JUMPDEST PUSH2 0xB00 DUP2 DUP6 PUSH2 0xA96 JUMP JUMPDEST SWAP4 POP PUSH2 0xB10 DUP2 DUP6 PUSH1 0x20 DUP7 ADD PUSH2 0xAA7 JUMP JUMPDEST PUSH2 0xB19 DUP2 PUSH2 0xADA JUMP JUMPDEST DUP5 ADD SWAP2 POP POP SWAP3 SWAP2 POP POP JUMP JUMPDEST PUSH1 0x0 PUSH2 0xB2F DUP3 PUSH2 0x911 JUMP JUMPDEST SWAP1 POP SWAP2 SWAP1 POP JUMP JUMPDEST PUSH2 0xB3F DUP2 PUSH2 0xB24 JUMP JUMPDEST DUP3 MSTORE POP POP JUMP JUMPDEST PUSH1 0x0 DUP2 ISZERO ISZERO SWAP1 POP SWAP2 SWAP1 POP JUMP JUMPDEST PUSH2 0xB5A DUP2 PUSH2 0xB45 JUMP JUMPDEST DUP3 MSTORE POP POP JUMP JUMPDEST PUSH1 0x0 PUSH1 0xA0 DUP3 ADD SWAP1 POP DUP2 DUP2 SUB PUSH1 0x0 DUP4 ADD MSTORE PUSH2 0xB7A DUP2 DUP9 PUSH2 0xAEB JUMP JUMPDEST SWAP1 POP PUSH2 0xB89 PUSH1 0x20 DUP4 ADD DUP8 PUSH2 0x9A6 JUMP JUMPDEST PUSH2 0xB96 PUSH1 0x40 DUP4 ADD DUP7 PUSH2 0xB36 JUMP JUMPDEST PUSH2 0xBA3 PUSH1 0x60 DUP4 ADD DUP6 PUSH2 0xB51 JUMP JUMPDEST PUSH2 0xBB0 PUSH1 0x80 DUP4 ADD DUP5 PUSH2 0x9A6 JUMP JUMPDEST SWAP7 SWAP6 POP POP POP POP POP POP JUMP JUMPDEST PUSH1 0x0 PUSH1 0x20 DUP3 ADD SWAP1 POP PUSH2 0xBCF PUSH1 0x0 DUP4 ADD DUP5 PUSH2 0xA29 JUMP JUMPDEST SWAP3 SWAP2 POP POP JUMP JUMPDEST PUSH1 0x0 DUP1 REVERT JUMPDEST PUSH1 0x0 DUP1 REVERT JUMPDEST PUSH32 0x4E487B7100000000000000000000000000000000000000000000000000000000 PUSH1 0x0 MSTORE PUSH1 0x41 PUSH1 0x4 MSTORE PUSH1 0x24 PUSH1 0x0 REVERT JUMPDEST PUSH2 0xC17 DUP3 PUSH2 0xADA JUMP JUMPDEST DUP2 ADD DUP2 DUP2 LT PUSH8 0xFFFFFFFFFFFFFFFF DUP3 GT OR ISZERO PUSH2 0xC36 JUMPI PUSH2 0xC35 PUSH2 0xBDF JUMP JUMPDEST JUMPDEST DUP1 PUSH1 0x40 MSTORE POP POP POP JUMP JUMPDEST PUSH1 0x0 PUSH2 0xC49 PUSH2 0x8FD JUMP JUMPDEST SWAP1 POP PUSH2 0xC55 DUP3 DUP3 PUSH2 0xC0E JUMP JUMPDEST SWAP2 SWAP1 POP JUMP JUMPDEST PUSH1 0x0 PUSH8 0xFFFFFFFFFFFFFFFF DUP3 GT ISZERO PUSH2 0xC75 JUMPI PUSH2 0xC74 PUSH2 0xBDF JUMP JUMPDEST JUMPDEST PUSH2 0xC7E DUP3 PUSH2 0xADA JUMP JUMPDEST SWAP1 POP PUSH1 0x20 DUP2 ADD SWAP1 POP SWAP2 SWAP1 POP JUMP JUMPDEST DUP3 DUP2 DUP4 CALLDATACOPY PUSH1 0x0 DUP4 DUP4 ADD MSTORE POP POP POP JUMP JUMPDEST PUSH1 0x0 PUSH2 0xCAD PUSH2 0xCA8 DUP5 PUSH2 0xC5A JUMP JUMPDEST PUSH2 0xC3F JUMP JUMPDEST SWAP1 POP DUP3 DUP2 MSTORE PUSH1 0x20 DUP2 ADD DUP5 DUP5 DUP5 ADD GT ISZERO PUSH2 0xCC9 JUMPI PUSH2 0xCC8 PUSH2 0xBDA JUMP JUMPDEST JUMPDEST PUSH2 0xCD4 DUP5 DUP3 DUP6 PUSH2 0xC8B JUMP JUMPDEST POP SWAP4 SWAP3 POP POP POP JUMP JUMPDEST PUSH1 0x0 DUP3 PUSH1 0x1F DUP4 ADD SLT PUSH2 0xCF1 JUMPI PUSH2 0xCF0 PUSH2 0xBD5 JUMP JUMPDEST JUMPDEST DUP2 CALLDATALOAD PUSH2 0xD01 DUP5 DUP3 PUSH1 0x20 DUP7 ADD PUSH2 0xC9A JUMP JUMPDEST SWAP2 POP POP SWAP3 SWAP2 POP POP JUMP JUMPDEST PUSH1 0x0 DUP1 PUSH1 0x0 PUSH1 0x60 DUP5 DUP7 SUB SLT ISZERO PUSH2 0xD23 JUMPI PUSH2 0xD22 PUSH2 0x907 JUMP JUMPDEST JUMPDEST PUSH1 0x0 DUP5 ADD CALLDATALOAD PUSH8 0xFFFFFFFFFFFFFFFF DUP2 GT ISZERO PUSH2 0xD41 JUMPI PUSH2 0xD40 PUSH2 0x90C JUMP JUMPDEST JUMPDEST PUSH2 0xD4D DUP7 DUP3 DUP8 ADD PUSH2 0xCDC JUMP JUMPDEST SWAP4 POP POP PUSH1 0x20 PUSH2 0xD5E DUP7 DUP3 DUP8 ADD PUSH2 0x9E7 JUMP JUMPDEST SWAP3 POP POP PUSH1 0x40 PUSH2 0xD6F DUP7 DUP3 DUP8 ADD PUSH2 0x95A JUMP JUMPDEST SWAP2 POP POP SWAP3 POP SWAP3 POP SWAP3 JUMP JUMPDEST PUSH32 0x4E487B7100000000000000000000000000000000000000000000000000000000 PUSH1 0x0 MSTORE PUSH1 0x12 PUSH1 0x4 MSTORE PUSH1 0x24 PUSH1 0x0 REVERT JUMPDEST PUSH32 0x4E487B7100000000000000000000000000000000000000000000000000000000 PUSH1 0x0 MSTORE PUSH1 0x11 PUSH1 0x4 MSTORE PUSH1 0x24 PUSH1 0x0 REVERT JUMPDEST PUSH1 0x0 PUSH2 0xDE2 DUP3 PUSH2 0x99C JUMP JUMPDEST SWAP2 POP PUSH2 0xDED DUP4 PUSH2 0x99C JUMP JUMPDEST SWAP3 POP DUP3 PUSH2 0xDFD JUMPI PUSH2 0xDFC PUSH2 0xD79 JUMP JUMPDEST JUMPDEST DUP3 DUP3 DIV SWAP1 POP SWAP3 SWAP2 POP POP JUMP JUMPDEST PUSH32 0x4E487B7100000000000000000000000000000000000000000000000000000000 PUSH1 0x0 MSTORE PUSH1 0x22 PUSH1 0x4 MSTORE PUSH1 0x24 PUSH1 0x0 REVERT JUMPDEST PUSH1 0x0 PUSH1 0x2 DUP3 DIV SWAP1 POP PUSH1 0x1 DUP3 AND DUP1 PUSH2 0xE4F JUMPI PUSH1 0x7F DUP3 AND SWAP2 POP JUMPDEST PUSH1 0x20 DUP3 LT DUP2 EQ ISZERO PUSH2 0xE63 JUMPI PUSH2 0xE62 PUSH2 0xE08 JUMP JUMPDEST JUMPDEST POP SWAP2 SWAP1 POP JUMP JUMPDEST PUSH1 0x0 PUSH2 0xE74 DUP3 PUSH2 0x99C JUMP JUMPDEST SWAP2 POP PUSH32 0xFFFFFFFFFFFFFFFFFFFFFFFFFFFFFFFFFFFFFFFFFFFFFFFFFFFFFFFFFFFFFFFF DUP3 EQ ISZERO PUSH2 0xEA7 JUMPI PUSH2 0xEA6 PUSH2 0xDA8 JUMP JUMPDEST JUMPDEST PUSH1 0x1 DUP3 ADD SWAP1 POP SWAP2 SWAP1 POP JUMP JUMPDEST PUSH1 0x0 PUSH2 0xEBD DUP3 PUSH2 0x99C JUMP JUMPDEST SWAP2 POP PUSH2 0xEC8 DUP4 PUSH2 0x99C JUMP JUMPDEST SWAP3 POP DUP3 PUSH32 0xFFFFFFFFFFFFFFFFFFFFFFFFFFFFFFFFFFFFFFFFFFFFFFFFFFFFFFFFFFFFFFFF SUB DUP3 GT ISZERO PUSH2 0xEFD JUMPI PUSH2 0xEFC PUSH2 0xDA8 JUMP JUMPDEST JUMPDEST DUP3 DUP3 ADD SWAP1 POP SWAP3 SWAP2 POP POP JUMP INVALID LOG2 PUSH5 0x6970667358 0x22 SLT KECCAK256 0xD0 0xEA PUSH17 0x5416DB9BE96911817A7F79CAB3AB4B0716 ADD MSTORE8 0x5F SUB PUSH23 0xB1262ABCC88B7D64736F6C634300080A00330000000000 "},"gasEstimates":{"creation":{"codeDepositCost":"780400","executionCost":"infinite","totalCost":"infinite"},"external":{"campaignRequests(uint256)":"infinite","contractManager()":"2577","contribute()":"infinite","createManagerRequest(string,uint256,address)":"infinite","finalizeManagerRequest(uint256)":"infinite","funders(address)":"2815","fundersCount()":"2452","getRequestsCount()":"2504","getSummary()":"infinite","minimumContribution()":"2451","numRequests()":"2473","voteForRequest(uint256)":"infinite"}},"methodIdentifiers":{"campaignRequests(uint256)":"6c60a942","contractManager()":"b39e12cf","contribute()":"d7bb99ba","createManagerRequest(string,uint256,address)":"cf97e294","finalizeManagerRequest(uint256)":"30559591","funders(address)":"031b3677","fundersCount()":"13a2e117","getRequestsCount()":"3410452a","getSummary()":"4051ddac","minimumContribution()":"937e09b1","numRequests()":"9fb42b1f","voteForRequest(uint256)":"700127ef"}},"storageLayout":{"storage":[{"astId":48,"contract":"KickstarterCampaign.sol:KickstarterCampaign","label":"contractManager","offset":0,"slot":"0","type":"t_address"},{"astId":50,"contract":"KickstarterCampaign.sol:KickstarterCampaign","label":"minimumContribution","offset":0,"slot":"1","type":"t_uint256"},{"astId":54,"contract":"KickstarterCampaign.sol:KickstarterCampaign","label":"funders","offset":0,"slot":"2","type":"t_mapping(t_address,t_uint256)"},{"astId":56,"contract":"KickstarterCampaign.sol:KickstarterCampaign","label":"fundersCount","offset":0,"slot":"3","type":"t_uint256"},{"astId":58,"contract":"KickstarterCampaign.sol:KickstarterCampaign","label":"numRequests","offset":0,"slot":"4","type":"t_uint256"},{"astId":63,"contract":"KickstarterCampaign.sol:KickstarterCampaign","label":"campaignRequests","offset":0,"slot":"5","type":"t_mapping(t_uint256,t_struct(CampaignRequest)311_storage)"}],"types":{"t_address":{"encoding":"inplace","label":"address","numberOfBytes":"20"},"t_address_payable":{"encoding":"inplace","label":"address payable","numberOfBytes":"20"},"t_bool":{"encoding":"inplace","label":"bool","numberOfBytes":"1"},"t_mapping(t_address,t_bool)":{"encoding":"mapping","key":"t_address","label":"mapping(address => bool)","numberOfBytes":"32","value":"t_bool"},"t_mapping(t_address,t_uint256)":{"encoding":"mapping","key":"t_address","label":"mapping(address => uint256)","numberOfBytes":"32","value":"t_uint256"},"t_mapping(t_uint256,t_struct(CampaignRequest)311_storage)":{"encoding":"mapping","key":"t_uint256","label":"mapping(uint256 => struct KickstarterCampaign.CampaignRequest)","numberOfBytes":"32","value":"t_struct(CampaignRequest)311_storage"},"t_string_storage":{"encoding":"bytes","label":"string","numberOfBytes":"32"},"t_struct(CampaignRequest)311_storage":{"encoding":"inplace","label":"struct KickstarterCampaign.CampaignRequest","members":[{"astId":298,"contract":"KickstarterCampaign.sol:KickstarterCampaign","label":"description","offset":0,"slot":"0","type":"t_string_storage"},{"astId":300,"contract":"KickstarterCampaign.sol:KickstarterCampaign","label":"payoutValue","offset":0,"slot":"1","type":"t_uint256"},{"astId":302,"contract":"KickstarterCampaign.sol:KickstarterCampaign","label":"recipient","offset":0,"slot":"2","type":"t_address_payable"},{"astId":304,"contract":"KickstarterCampaign.sol:KickstarterCampaign","label":"complete","offset":20,"slot":"2","type":"t_bool"},{"astId":306,"contract":"KickstarterCampaign.sol:KickstarterCampaign","label":"approvalCount","offset":0,"slot":"3","type":"t_uint256"},{"astId":310,"contract":"KickstarterCampaign.sol:KickstarterCampaign","label":"approvalsMapping","offset":0,"slot":"4","type":"t_mapping(t_address,t_bool)"}],"numberOfBytes":"160"},"t_uint256":{"encoding":"inplace","label":"uint256","numberOfBytes":"32"}}},"userdoc":{"kind":"user","methods":{},"version":1}}